:020000040800F2
:10000000882E0020290200088F350008B92D00082D
:100010008D3500082D0800087D4000080000000014
:100020000000000000000000000000009101000836
:100030007F08000800000000D5010008F93800081A
:10004000430200084302000843020008430200087C
:10005000430200084302000843020008430200086C
:1000600043020008810800088708000831080008DA
:100070003D08000843020008490800084302000840
:10008000430200084302000843020008430200083C
:100090004302000843020008430200088D080008DC
:1000A00043020008AD39000843020008430200087B
:1000B000B93900084302000843020008430200085F
:1000C00043020008430200084302000843020008FC
:1000D0004302000865400008430200087140000820
:1000E00043020008430200084302000800F002F83F
:1000F00000F03FF80AA090E8000C82448344AAF183
:100100000107DA4501D100F034F8AFF2090EBAE880
:100110000F0013F0010F18BFFB1A43F0010318473B
:10012000B05E0000D05E0000103A24BF78C878C1ED
:10013000FAD8520724BF30C830C144BF04680C60ED
:10014000704700000023002400250026103A28BF35
:1001500078C1FBD8520728BF30C148BF0B60704739
:10016000782900F0BD80002070471FB51FBD10B575
:1001700010BD00F083FA1146FFF7F7FF04F070F9A5
:1001800000F0A1FA03B4FFF7F2FF03BC00F0A6FAF7
:10019000224B19680868B0E8F00F80F30988BFF3B4
:1001A0006F8F4FF0000080F311884EF00D0E7047F6
:1001B0000000000006480068006880F3088862B606
:1001C00061B6BFF34F8FBFF36F8F00DF00BF00BF7B
:1001D00008ED00E0EFF30980BFF36F8F0F4B1A6853
:1001E00020E9F00F106008B54FF0500080F311883F
:1001F000BFF34F8FBFF36F8F04F060FE4FF000002E
:1002000080F31188BDE8084019680868B0E8F00F6D
:1002100080F30988BFF36F8F704700BF4400002050
:10022000EFF3058070470000094880470948004700
:10023000FEE7FEE7FEE7FEE7FEE7FEE7FEE7FEE796
:10024000FEE7FEE704480549054A064B70470000F3
:10025000AB390008ED00000888280020882E002017
:10026000882A0020882A00200FB41CB5074B06AA54
:100270007B4469460090059800F0DFF9002069464C
:1002800000F0EEF91CBC5DF814FB0000ED0300006B
:1002900070B5044685690068C10601D5302600E0C6
:1002A0002026C00707D070BDD4E901213046904711
:1002B000206A401C20626D1EF6D570BD70B50446E4
:1002C00085690078C00707D170BDD4E901212020DD
:1002D0009047206A401C20626D1EF6D570BD00005C
:1002E00070B504460D4621461068AFF300802188A2
:1002F000090502D50F4A7A4402E00E4A7A440E32CA
:10030000002104F1240305E000F00F060009965DCA
:100310005E54491C0028F7D120780023000704D53B
:10032000702D02D009B1022311322046BDE8704081
:1003300000F024B94E5C00002DE9F05F89460446C8
:100340004FF0000ADFF824B1FB44C0F820A020469B
:10035000E168884700287DD0252806D0D4E901210E
:100360009047206A401C2062F1E700255F46204646
:10037000E16888472028064607DB312E05D2B819E8
:1003800010F8200C08B10543F1E7A80701D525F0C6
:100390000405C4F81CA00027C4F818A02A2E09D010
:1003A000304603F088FE38B304EB8708303EC8F8C7
:1003B000186019E059F8041B204604EB870291618C
:1003C000E1688847012F064618D1E069002820DA45
:1003D00025F020051DE0D8F8180000EB800006EBA2
:1003E00040003038C8F818002046E16888470646C3
:1003F00003F061FE0028EED1012F0AD02E2E08D185
:100400002046E16888477F1C0646022F45F02005FC
:10041000C4DBA069002803DA404245F00105A06171
:10042000E80701D025F01005A6B1A6F14100192872
:1004300002D8203645F400654A46314620462560FC
:100440004D46FFF78DFE60B1012807D0ED1D25F068
:10045000070000E007E000F1080978E705F104096A
:1004600075E730467AE7206ABDE8F09F245C00001B
:1004700010B5431C02E010F8011B71B18107FAD1DD
:100480004FF0013202C88C1A8C4314EAC211F9D021
:10049000C01A0A0603D0C01E10BDC01A10BD0A043F
:1004A00001D0801E10BD0902FCD0401E10BD10B549
:1004B000203AC0F00B80B1E81850203AA0E818505C
:1004C000B1E81850A0E81850BFF4F5AF5FEA027C1D
:1004D00024BFB1E81850A0E8185044BF18C918C08C
:1004E000BDE810405FEA827C24BF51F8043B40F82D
:1004F000043B08BF7047D20728BF31F8023B48BF12
:1005000011F8012B28BF20F8023B48BF00F8012B4F
:1005100070474FF0000200B51346944696462039C6
:1005200022BFA0E80C50A0E80C50B1F12001BFF4AC
:10053000F7AF090728BFA0E80C5048BF0CC05DF812
:1005400004EB890028BF40F8042B08BF704748BF60
:1005500020F8022B11F0804F18BF00F8012B7047D4
:1005600070477047704710B500F080F8006810BD04
:1005700010B5044600F07AF8046010BD2DE9F0478C
:100580000D4699469246044600F124080168880603
:1005900004D5E06921F01001216000E00120A842AB
:1005A00001DD471B00E00027A1697A1902EB090071
:1005B000081AA0612078C00602D42046FFF768FE22
:1005C000002608E0D4E901211AF806009047206AC5
:1005D000401C761C20624E45F4DB2078C0060AD50C
:1005E0002046FFF755FE06E0D4E901213020904770
:1005F000206A401C2062381EA7F10107F4DC07E0E6
:10060000D4E9012118F805009047206A401C2062B7
:10061000281EA5F10105F3DC2046FFF74FFE2078E8
:10062000000602D50220BDE8F0870120FBE70000AC
:1006300001694A1C02610878704700B58FB0CDE9A6
:1006400001310021059105497944CDE90310114696
:100650006846FFF771FE0FB000BD0000E5FFFFFF29
:100660000A6802F8010B0A607047000000487047F2
:100670002828002000487047282800207546FFF7EA
:10068000F9FFAE4605006946534620F0070085464F
:1006900018B020B5FFF7D6FDBDE820404FF00006AA
:1006A0004FF000074FF000084FF0000B21F007015A
:1006B000AC46ACE8C009ACE8C009ACE8C009ACE89D
:1006C000C0098D46704710B50446AFF30080204640
:1006D000BDE81040FFF756BD7047000001491820E3
:1006E000ABBEFEE72600020070B5044600688168D4
:1006F000C943C90717D1816821F00101816000F069
:1007000061FD05460AE000BF00F05CFD401B0228C9
:1007100004D920688068C043C00706D0206880687C
:10072000C043C007F0D0002070BDA06A40F01000A8
:10073000A062E06A40F00100E062012070BD10B5E7
:100740000146406A826A12F0500F05D0006A026BBF
:10075000BDE8104008461047816A41F4007181628B
:1007600001688968C1F3424107290CD1017B51B965
:10077000816A21F480718162816AC90403D4816A2B
:1007800041F00101816200F00BF910BD10B5406A23
:10079000816A41F040018162C16A41F00401C16295
:1007A00000F000F910BD10B5406A00F0FAF810BD75
:1007B000F8B500260446009600688168C943C90759
:1007C0002DD0816841F0010181601648164900680A
:1007D000B0FBF1F000E0401E00900028FBD100F0DB
:1007E000F1FC054616E000BF00F0ECFC401B0228BF
:1007F00010D920688068C043C0070BD0A06A40F0C1
:100800001000A062E06A40F00100E06284F8246019
:100810000120F8BD20688068C043C007E4D10020F3
:10082000F8BD00004000002040420F00FEE700003D
:10083000014800F083BA0000D0030020014800F016
:100840007DBA000058040020014800F077BA00008B
:100850001404002030B590F840500124AC40C56B22
:100860006C60046863604368102B036803D0996070
:100870000068C26030BD9A600068C16030BD7047DA
:10088000082000F095BB102000F092BB10B520208E
:1008900000F08EFBBDE810404FF4807000F088BB84
:1008A00072B6FEE7F8B50024009490F8242025469F
:1008B000012A12D0012280F824204A681F23072A27
:1008C0000DD20668776B521E02EB820293409F4363
:1008D0000B6893401F43776319E00220F8BD066858
:1008E0000D2A0AD2376BD21F02EB820293409F433C
:1008F0000B6893401F43376309E0F76A0D3A02EB38
:10090000820293409F430B6893401F43F7620A683B
:10091000072306680A2A0AD3F7680A3A02EB42025A
:1009200093409F438B6893401F43F76008E037690B
:1009300002EB420293409F438B6893401F43376111
:100940000A68102A01D0112A20D1124B02689A425B
:1009500017D193681B0219D4936843F40003936082
:100960000968102912D10C490C4A0968B1FBF2F14F
:1009700001EB8101490000E0491E00910029FBD1F3
:1009800004E0816A41F020018162012480F8245052
:100990002046F8BD002401404000002040420F00E6
:1009A00070477047704700002DE9F0414FF0000795
:1009B00004003D467ED0A06A002628B9E66284F88D
:1009C0002460204600F07EF82046FFF78DFEA16AE5
:1009D000C90600D420B1A06A40F01000A06269E00E
:1009E000A16A21F4885141F00201A1626268E169C3
:1009F000237B0A4347EA43010A43A1684FF4807707
:100A0000B94209D0012907D05FF0000194F814C061
:100A1000BCF1010F02D00AE03946F7E7F3B1A36A4F
:100A200043F02003A362E36A43F00103E362236817
:100A3000D3F804C02CF4694C4CEA010CC3F804C090
:100A400021688B68DFF870C003EA0C0313438B60E6
:100A5000A168B9420BD0012909D00CE0DFF85CC0D5
:100A6000A3690CEB43330B4343F40061DFE7218AB6
:100A70000D05A5F580152168CB6A23F470032B437F
:100A8000CB62216889680E4B1940914208D1E66219
:100A9000A16A21F0020141F00101A162BDE8F081EB
:100AA000A06A20F0020040F01000A062E06A40F06E
:100AB0000100E0620120F1E7FDF7E1FF00E0FFFF48
:100AC000FE0E1FFF70B586B0002506460095019505
:100AD000029503950068194988422DD11849886903
:100AE00040F400708861886900F40070049088699F
:100AF00040F0040088618869694600F004000490B1
:100B00000320009001900F4800F05EFA0F4C0E4851
:100B1000C4E900058020C4E9025040002061800043
:100B200060612020C4E90605204600F0B1F908B153
:100B3000FFF7B6FE3462666206B070BD0024014065
:100B4000001002400008014008000240D0030020CD
:100B50002DE9F047894604463B4900683B4F0E1D8E
:100B60009046884201D0B84207D1306810F4702F07
:100B700003D001252846BDE8F08794F82400012819
:100B80000CD0012084F824002046FFF711FE050058
:100B90004FF0000004D084F82400EBE70220EAE7DD
:100BA000A16A40F60162914341F48071A16221681B
:100BB000B94218D1326812F4702F14D0A16A41F4EE
:100BC0008011A1623168490505D5A16A21F400515F
:100BD00041F48051A162A16AC9040AD5E16A21F0F9
:100BE0000601E16206E0A26A22F48012A26249686C
:100BF000E9E7E06284F82400216A15488862216AE6
:100C00001448C862216A1448086321686FF0020022
:100C100008602068816841F48071816021684346E2
:100C20004A464C31206A00F061F920688168C1F3BE
:100C300042410729816803D041F48011816099E71E
:100C400041F4A001FAE7000000240140002801401F
:100C50003F070008A70700088D07000810B590F8A7
:100C600021100022022905D00421816380F8202070
:100C7000012010BD01680B6823F00E030B600168B2
:100C80000B6823F001030B6090F84030C46B012126
:100C900001FA03F3636080F8211080F820201046E9
:100CA00010BD000010B590F821100024022903D0D7
:100CB0000421816301243DE001680A6822F00E02EC
:100CC0000A6001680A6822F001020A601A4A016893
:100CD000914201D1012121E0174A1432914201D100
:100CE00010211BE0144A2832914201D1891515E0E8
:100CF000114A3C32914201D189140FE00E4A503220
:100D0000914202D14FF4803108E00B4A64329142A3
:100D100002D14FF4801101E04FF08071064A083A89
:100D20005160012180F82110002180F82010416BD2
:100D300001B18847204610BD080002402DE9F05F50
:100D4000C16B0C6801680B68D0F840C0042202FA3D
:100D50000CF2494DDFF824A1494E4A4FDFF828B183
:100D6000DFF828E122422CD05A072AD50A689206D9
:100D700003D40A6822F004020A600168A94201D182
:100D8000042219E0514501D1402215E0B14202D1BF
:100D90004FF4806210E0B94202D14FF480420BE080
:100DA000594502D14FF4802206E0714502D14FF43B
:100DB000800201E04FF080622F4908394A60C16A21
:100DC0003BE04FF0020808FA0CF818EA040F4FF065
:100DD00000094FF0010235D05FEA837832D50B6805
:100DE0009B0605D40B6823F00A030B6080F82120D2
:100DF0000168A94201D1022219E0514501D1202206
:100E000015E0B14202D14FF4007210E0B94202D1B4
:100E10004FF400520BE0594502D14FF4003206E086
:100E2000714502D14FF4001201E04FF000721249F7
:100E300008394A6080F82090816A00291AD0BDE8FC
:100E4000F05F0847082505FA0CF5254212D01B076C
:100E500010D50B6823F00E030B6090F84010C36BA5
:100E600002FA01F15960826380F8212080F8209015
:100E7000016BE2E7BDE8F09F080002401C00024061
:100E80003000024044000240580002406C00024022
:100E900030B528B308C8134914221944B1FBF2F144
:100EA0008900C16310498163022141771A6843F6C2
:100EB000F0718A43D0E900142143D0E902452C4364
:100EC0002143046921434469214384692143114337
:100ED000196000214163012242770177084630BD45
:100EE000012030BDF8FFFDBF0000024070B5044690
:100EF00090F82000002501280CD0012084F8200063
:100F000094F821600020012E06D084F820000225EC
:100F1000284670BD022070BD022684F82160A063BF
:100F20002068066826F0010606602046FFF792FC5E
:100F3000E06A00282068016802D041F00E0106E056
:100F400021F0040101602068016841F00A0101609C
:100F50002068016841F001010160D9E770B50446DD
:100F600000F030F90546601C02D0044800780444C3
:100F700000F028F9401BA042FAD370BD34000020D5
:100F800038B500210124084D0091B0F5807F03D0D1
:100F9000082800D16C7038BD04486946006804F028
:100FA00075F82C7038BD00002000002008000020DB
:100FB000044910B50A68024202D00860FFF7E0FF5A
:100FC00010BD0000140401402DE9F84FDFF8B8917E
:100FD0000024A9F1040B23460F2709F1040AABF101
:100FE000040EC9E00125A5402A40AA427DD1674EE2
:100FF000D1F804C0ACEB0608B44532D014DCBCF127
:10100000030F3AD009DCBCF1000F2AD0BCF1010F6C
:101010001CD0BCF1020F31D11DE0BCF1110F17D073
:10102000BCF1120F2AD119E0B8F5881F19D006DCDF
:10103000B8F5803F15D0B8F5801F1FD111E0B8F585
:10104000001F0ED0B8F5041F18D10AE0CB6815E0D8
:10105000CB681B1D12E0CB6808330FE0CB680C3364
:101060000CE08B682BB1012B4FF0080303D04561D6
:1010700004E0042302E0056100E00023FF2A01D818
:10108000064601E000F104064FEA840501D9A5F106
:101090002005D6F8008007FA05FC28EA0C0803FAB8
:1010A00005F548EA0508C6F800804D68ED0062D5F0
:1010B000374DAE6946F00106AE61AD6924F0030616
:1010C00005F001050095334D06EB050CDCF80850E2
:1010D000A607360F07FA06F825EA0805DFF8B880F4
:1010E000404503D14FF0000817E044E0DFF8AC8042
:1010F000404502D14FF001080FE0DFF8A4804045E1
:1011000002D14FF0020808E0DFF89880404502D194
:101110004FF0030801E04FF0040808FA06F848EA27
:101120000508CCF808804D68D9F80060ED024D46FE
:1011300001D5164300E096432E604D68DAF8006052
:10114000AD02554601D5164300E096432E604D682A
:10115000DBF80060AD035D4601D5164300E0964321
:101160002E604D68DEF80060ED03754601D516432C
:1011700000E096432E60641C0D682A46E5407FF42B
:1011800031AFBDE8F88F00000804014000001110E5
:10119000001002400000014000080140000C014026
:1011A0000010014000140140C26821EA02030A4015
:1011B00043EA0241016170470AB1016170470904C5
:1011C000FBE7000001488068704700003400002001
:1011D00070B5040025D094F83D00002520B984F8AE
:1011E0003C50204600F0B8F8242084F83D002068E8
:1011F000016821F0010101602068016841F40041AB
:1012000001602068016821F40041016000F020FBCA
:101210004D4A6168914201D84C4900E04C498842EE
:1012200001D2012070BD4B492368B0FBF1F15E682B
:1012300026F03F060E435E606368934206D94FF482
:10124000967359434FF47A73B1FBF3F12368491C49
:101250001E6A26F03F06314319626168914210D838
:101260004900401EB0FBF1F2521CC2F30B02042AEB
:1012700001D2042022E0B0FBF1F0401CC0F30B00CF
:101280001CE0A268F2B301EBC10303EB0116431E9D
:10129000B3FBF6F35B1C43F480431B0549D092B3C8
:1012A00001EBC10202EB0111401EB0FBF1F0401C4A
:1012B000C0F30B0040F4804040F400402168CA694C
:1012C0004CF6FF739A431043C861D4E907100143F9
:1012D0002068026822F0C00211430160D4E90301D2
:1012E00001432068826848F2FF339A4311438160CA
:1012F000D4E9050108432168CA6822F0FF021043BF
:10130000C86001E00EE016E02068016841F00101CC
:1013100001602564202084F83D00256384F83E5058
:10132000002070BD01EB4106431EB3FBF6F35B1CCE
:10133000B3E70120C2E701EB4101401EB0FBF1F031
:10134000401CC0F30B00B7E7A086010080841E009C
:1013500000093D0040420F0010B586B00021009109
:1013600001910291039100680F4988421AD10F4CF4
:10137000A06940F00800A061A069694600F008007B
:101380000490C02000901220019003200390084890
:10139000FFF71AFEE06940F40010E061E06900F434
:1013A0000010049006B010BD005400400010024030
:1013B000000C014002488168027811448160704746
:1013C00034000020074810B5016841F010010160A9
:1013D000032000F0A7F80F2000F006F800F050F806
:1013E000002010BD0020024030B50546204887B0DF
:1013F000C16941F00101C161C06906A900F00100A5
:10140000009001A800F004FA0498B8B100F020FAA6
:10141000400018494FF08042B0FBF1F11648491ED8
:101420000260416040F2E7320021C0E9032181609F
:10143000816101F0D1F8040003D015E000F008FA52
:10144000E7E70D4801F014F904000DD11C2000F06D
:101450003BF8102D07D2002229461C2000F042F84C
:101460000648056000E0012407B0204630BD0000BA
:101470000010024040420F00F0060020380000201B
:101480000F4808B5816941F001018161816901F06E
:1014900001010091C16941F08051C161C069002220
:1014A00000F0805000900F21901E00F01BF80548BE
:1014B000416821F0E06141F00071416008BD000029
:1014C0000010024000000140002809DB00F01F026C
:1014D000012191404009800000F1E020C0F8001196
:1014E00070470000F0B40E4B1B680C46C3F3022398
:1014F000C3F10705042D00D90425191D072901D2C0
:10150000002300E0DB1E012606FA05F1491E2140FA
:1015100099409E40761E16403143F0BC02F0AFBDAC
:101520000CED00E0064900F0070208684FF6FF03E3
:10153000184040EA0220034A104308607047000048
:101540000CED00E00000FA05014901200862704737
:1015500000000E4210B501460020234C012922D084
:10156000022939D010291DD161682268D20119D50C
:101570001E48C1F38342C903805C0AD561681B4AD7
:10158000C1F34041921E515C194AB2FBF1F148434C
:1015900001E0184948436168490203D4400003212F
:1015A000B0FBF1F010BD226AC2F30121012903D181
:1015B000920701D5C80310BD022905D1626A9207BE
:1015C00002D549F6404010BD0329FCD121688903AA
:1015D000F9D54FF2244010BD00F04AF96168C1F31B
:1015E0008131491C4900DBE700100240CC5E000855
:1015F00000127A0000093D002DE9F8430546007805
:10160000354CC00754D0E0690026C00008D4E0691A
:1016100040F08050E061E069012600F080500090C9
:101620002E480168C90512D40168804641F48071D2
:101630000160FFF7C7FD074605E000BFFFF7C2FDE9
:10164000C01B642823D8D8F80000C005F6D5206A4E
:1016500010F4407021D0A98801F4407181421CD05F
:10166000206A1F49012220F440700A6000220A60AB
:101670002062C00711D0FFF7A5FD074641F2883868
:1016800008E000BFFFF79EFDC11B414502D90320C2
:10169000BDE8F883206A8007F4D5206A696820F4E1
:1016A0004070084320621EB1E06920F08050E06184
:1016B0002878800705D56068A96820F44040084371
:1016C00060602878C00605D56068E96820F480006D
:1016D000084360600020DBE700100240007000401B
:1016E000400442422DE9F0470F46050061D0434EC9
:1016F000306800F00700B84209D2306820F00700D7
:1017000038433060306800F00700B84251D1286893
:101710003B4C810712D5400703D5606840F4E06078
:1017200060602878000703D5606840F4605060600E
:101730006068A96820F0F000084360602878C0075E
:1017400028D06868012810D02168022810D08907A5
:1017500000292EDA616821F0030101436160FFF77F
:1017600031FD804641F288390DE021688903EFE7B9
:101770008901EDE7FFF726FDA0EB0801494502D9F5
:101780000320BDE8F0876068696800F00C00B0EBEA
:10179000810FEFD1306800F00700B8420BD93068F4
:1017A00020F0070038433060306800F00700B8428E
:1017B00001D00120E5E72878400705D56068E96891
:1017C00020F4E060084360602878000706D5606870
:1017D000296920F4605040EAC100606000F058F8C8
:1017E0006168084AC1F30311515CC84006490860AA
:1017F00006480068FFF7F8FD0020C2E7002002401D
:1018000000100240DC5E000840000020380000208C
:101810000F2202600C4A536803F0030343605368CD
:1018200003F0F0038360536803F4E063C36052681D
:101830004FF4E06303EAD20202610448006800F05A
:1018400007000860704700000010024000200240BE
:101850000448054900684968044AC1F30221515C03
:10186000C84070474000002000100240EC5E0008B5
:101870000448054900684968044AC1F3C221515C23
:10188000C84070474000002000100240EC5E000895
:101890000E4A51680E4801F00C03042B11D0082B9E
:1018A0000FD10C48C1F38343C903C05C0AD551680A
:1018B000084AC1F34041921E515C054A5043B0FBB7
:1018C000F1F070470449484370470000001002409F
:1018D00000127A00BA5E000800093D002DE9F84FB9
:1018E000040070D02078C04DC00749D06868C0F3AC
:1018F0008100012807D06868C0F38100022809D15F
:101900006868C00306D52868800339D56068002858
:10191000E7D035E06068B0F5803F0BD010B1B0F58E
:10192000A02F11D0286820F480302860286820F487
:10193000802002E0286840F480302860606890B120
:10194000FFF740FC06460AE0286840F48020286043
:10195000F0E700BFFFF736FC801B642873D82868C7
:101960008003F7D50CE0FFF72DFC064605E000BF2D
:10197000FFF728FC801B6428F0D828688003F7D480
:1019800020789A4E80074FF001094FF0000839D5B2
:10199000686810F00C0F07D06868C0F38100022857
:1019A00009D16868C00306D42868800714D5206967
:1019B000012808D110E02069B0B1C6F80090FFF707
:1019C00001FC074605E00AE1FFF7FCFBC01B02280B
:1019D000C4D828688007F7D52868616920F0F80026
:1019E00040EAC10028600DE0C6F80080FFF7EAFB7E
:1019F000074604E0FFF7E6FBC01B022823D828684F
:101A00008007F7D4207800072CD57948A169D9B18F
:101A1000C0F80090FFF7D6FB074604E0FFF7D2FBC3
:101A2000C01B02280FD8686A8007F7D571484FF4A9
:101A3000FA510068B0FBF1F0009000BF0098411E21
:101A40000091FAD20EE080E0C0F80080FFF7BAFB08
:101A5000074604E0FFF7B6FBC01B022875D8686A8A
:101A60008007F7D42078400760D5E8690027C000D8
:101A700008D4E86940F08050E861E869012700F087
:101A8000805000905C480168C90513D40168834602
:101A900041F480710160FFF795FB824606E000BFCC
:101AA000FFF790FBA0EB0A0064284ED8DBF800009B
:101AB000C005F5D5E06801280AD008B1052813D083
:101AC000286A20F001002862286A20F0040002E061
:101AD000286A40F001002862E06841F2883B98B132
:101AE000FFF770FB82460BE0286A40F00400286292
:101AF000EEE700BFFFF766FBA0EB0A0159455AD895
:101B0000286A8007F6D50CE0FFF75CFB824605E00B
:101B1000FFF758FBA0EB0A0159454CD8286A80070B
:101B2000F6D41FB1E86920F08050E861E06988B31D
:101B30006968C1F38101022944D00228C6F8608097
:101B400004D0FFF73FFB044638E034E0FFF73AFBF0
:101B5000074604E0FFF736FBC01B02282BD8286895
:101B60008001F7D4206AB0F5803F05D16868A1688C
:101B700020F4003008436860D4E90801084369682C
:101B800021F4741108436860C6F86090FFF71AFBEF
:101B9000044606E025E000BFFFF714FB001B022807
:101BA00009D828688001F7D51BE000BFFFF70AFBC2
:101BB000001B022802D90320BDE8F88F28688001A5
:101BC000F4D40EE00128F7D06868226A00F480316E
:101BD000914204D1616A00F47010884201D0012062
:101BE000EAE70020E8E7000000100240000042425F
:101BF000800442424000002000700040F8B505001B
:101C00004FF0000016460C46009006D02CB1002282
:101C10006946284600F019F808B10120F8BD287B74
:101C20002070E87BE070697B6170A97BA17056B180
:101C300001F0B7FCE070607801F0B3FC6070A07850
:101C400001F0AFFCA0700020F8BD2DE9F0479146EF
:101C50000C465FEA00084AD084B3D8F80000406818
:101C6000400744D4404601F03BFD4FF46162054615
:101C7000B0FBF2F1B0FBF2F302FB13503C23B0FBDC
:101C8000F3F0B5FBF2F6607002FB1650B0FBF3F216
:101C900003FB1200A070182931D31820B1FBF0F714
:101CA000B1FBF0F200FB12102070404601F011FD74
:101CB000411C04D0A84202D9461B02E017E04FF0B5
:101CC000FF36A7EB071000EB4000C0EB001005EB60
:101CD000C0152946404601F052FD40B9701C01D0A4
:101CE000711900E03146404601F035FD10B1012088
:101CF000BDE8F0873946404601F05EFC00E0217007
:101D0000B9F1000F0BD0207801F04BFC2070607807
:101D100001F047FC6070A07801F043FCA070002047
:101D2000E6E7000070B5040003D0607C002610B127
:101D300005E0012070BD2674204600F03DF8022029
:101D40006074204600F00AF9042550BB204601F0DB
:101D50008AFC30BB2068416821F007014160A0681F
:101D600020B11448016821F0010101601148001FF1
:101D70000168A26821F46071114301606068411C30
:101D800004D10120FFF7E6FB58B1401E2268C0F3E2
:101D900003419160216880B2C860204601F07EFC5A
:101DA00008B16574C5E7E67301206073A0736074C1
:101DB000002070BD306C004008B5006808498842BA
:101DC0000DD1FFF7C1FB0748C16941F00061C16156
:101DD000C069054900F0006000900120086008BD5E
:101DE00000280040001002403C0442422DE9F0412E
:101DF0000D4604003BD0C5B3207C01283AD04FF0FB
:101E0000010884F8108002206074E87872B301F051
:101E1000BFFBE073687801F0BBFB6073A87801F04A
:101E2000B7FBA073C2B2617BE07B01F069FC207359
:101E30002870204601F054FC4FF46161B0FBF1F1D1
:101E4000002518292DD91822B1FBF2F1A1EB0111BF
:101E500001EB4101C1EB011100EBC11631462046F7
:101E600001F08DFC0427C8B90BE000E004E001207C
:101E7000BDE8F0810220FBE7E07368786073A87822
:101E8000CFE7204601F025FC411C0AD0B04208D221
:101E900006490144204601F05EFC10B167742574C8
:101EA000E5E784F8118025740020E1E78051010006
:101EB0002DE9F0410D46040024D01DB3207C0128FB
:101EC00023D04FF0010884F8108002206074287835
:101ED000EAB101F05DFB4FF4616100FB01F6687847
:101EE00001F056FBC0EB001006EB8006A87801F06D
:101EF0004FFB35182946204601F041FC00260427F7
:101F000010BB0FE00120BDE8F0810220FBE74FF499
:101F1000616148436978C1EB011100EB8100A97848
:101F20004518E7E72068416821F005014160204637
:101F300001F0CFFB411C0AD0A84208D20649014457
:101F4000204601F008FC10B167742674DAE784F8C3
:101F5000118026740020D6E78051010070B504007E
:101F60000AD02068416821F008014160FFF72AF992
:101F700005464FF47A7608E0012070BDFFF722F99C
:101F8000401BB04201D9032070BD206840680007A3
:101F9000F4D5002070BD90F85100704770B5040072
:101FA00009D0606A002540B125616561A56294F899
:101FB000510040B10CE0012070BD6068B0F5827F37
:101FC000F4D0E561F2E784F85050204600F040F884
:101FD000022084F851002068016821F0400101606E
:101FE000A088218900F4827001F404410843A1898A
:101FF00001F400610843217C01F002010843217DC6
:1020000001F001010843218B01F400710843217F95
:1020100001F03801084394F8201001F080010843D2
:10202000218D01F40051084321680860A069042152
:1020300001EA1040216848602068C16921F400610C
:10204000C1616565012084F85100002070BD000069
:1020500030B585B000240094019402940394006884
:102060001449884223D11448816941F48051816127
:10207000816901F480510491816941F00401816119
:1020800080690E4D00F004000490A0200090022012
:1020900001900320039069462846FEF795FF4020F3
:1020A000CDE90004694628460294FEF78DFF05B08D
:1020B00030BD000000300140001002400008014027
:1020C0002DE9F84F044690F851001D4616460F467C
:1020D000012838D160684FF00408B0F5827F01D143
:1020E000A06830B3FFF76EF88246002F75D0002E3F
:1020F00073D094F85000012825D04FF0010984F8DE
:10210000509084F851804FF00008C4F85480A763C1
:10211000A687E687C4F83080A4F83480A4F8368017
:10212000C4F84080C4F84480A068B0F5004F0CD0DB
:1021300015E084F85180009313460A46204600F0CB
:102140001CF9BDE8F88F0220FBE72068016821F048
:10215000400101602068016821F48041016020682D
:102160000168490603D4016841F040010160E0685C
:10217000C0B134E020688168C90709D0007BA16B39
:102180000870A06B401CA063E08F401EE08709E050
:10219000FFF718F8A0EB0A00A84202D3681C01D090
:1021A00032E085B3E08F0028E4D11BE0206881682D
:1021B000C90709D0C068A16B0880A06B801CA06310
:1021C000E08F401EE0870AE0FEF7FCFFA0EB0A006C
:1021D000A84203D3681C02D016E012E09DB1E08F44
:1021E0000028E3D152462946204601F0DCFA08B126
:1021F0002020606584F8519084F85080606D00283C
:102200009FD001209DE7FFE784F8519084F850802B
:10221000032096E72DE9F84F984616468A4604466D
:10222000FEF7D0FF814694F8510001281ED1BAF183
:10223000000F73D0002E71D094F85000012815D0F3
:10224000012784F85070032084F85100002565654B
:10225000C4F830A0A686E686A563A587E5876564F1
:102260002564A068B0F5004F03D00CE00220BDE863
:10227000F88F2068016821F0400101602068016842
:1022800041F48041016020680168490603D4016877
:1022900041F040010160E068B0F5006F606803D074
:1022A00048B3012E27D047E008B1012E1FD1206B83
:1022B00021680088C86006E020688168890709D520
:1022C000216B0988C160206B801C2063E08E401E5A
:1022D000E0860CE0FEF776FFA0EB0901414503D351
:1022E000B8F1FF3F03D035E0B8F1000F32D0E08EF7
:1022F0000028E1D123E0206B21680078087306E014
:102300002068816889070AD5216B09780173206BE1
:10231000401C2063E08E401EE0860DE02BE0FEF7BF
:1023200051FFA0EB0901414503D3B8F1FF3F03D0B2
:1023300010E0B8F1000F0DD0E08E0028E0D14A4641
:102340004146204601F05DFA08B120206065A06892
:1023500030B109E084F8517084F85050032086E7CA
:102360002068C1688068009084F8517004F8505F5C
:1023700060680028F3D0012079E72DE9FF4F81B094
:102380001D46934604464FF001090E9EFEF71AFFC4
:10239000074694F851006168012806D0B1F5827FA4
:1023A0003CD1A168C9BB042838D10298002871D05B
:1023B000BBF1000FFBD0002DF9D094F8500001289C
:1023C0002CD04FF0010A84F850A094F85100042852
:1023D00002D0052084F851004FF00008C4F8548062
:1023E000C4F838B0E587A58702992163E586A586FC
:1023F000C4F84080C4F8448020680168490603D4CA
:10240000016841F040010160E068B0F5006F60686C
:1024100008D0F0B3012D49D081E0FFE7022005B0DC
:10242000BDE8F08F08B1012D39D1206B21680088FB
:10243000C860206B801C2063E08E401EE0862EE08A
:102440002068816889070FD5E18E69B1B9F1010F64
:102450000AD1216B0988C160206B801C2063E08E4B
:10246000401EE0864FF0000920688168C9070CD043
:10247000E18F51B1C068A16B0880A06B801CA06384
:10248000E08F401EE0874FF00109FEF79BFEC01B66
:1024900001E00BE067E0B04201D3701C50D1E08E48
:1024A0000028CDD1E08F0028CAD13EE0206B216802
:1024B00000780873206B401C2063E08E401EE0868D
:1024C0002DE02068816889070FD5E18E69B1B9F1E7
:1024D000010F0AD1216B09780173206B401C206326
:1024E000E08E401EE0864FF0000920688168C90731
:1024F0000CD0E18F51B1C068A16B0870A06B401C7B
:10250000A063E08F401EE0874FF00109FEF75AFEFE
:10251000C01BB04202D3701C01D011E086B1E08E26
:102520000028CED1E08F0028CBD13A463146204654
:1025300001F067F950B12020606584F8508012E006
:1025400084F851A084F85080032068E7A06818B987
:102550002068C1688068009084F851A084F8508099
:10256000606D0028F1D0012059E7704770470000E6
:1025700070B590F83C20012A26D0012480F83C4018
:10258000022280F83D2003685A689D6822F0700698
:102590000A6832435A600D4B02689A4208D0B2F181
:1025A000804F05D00A4B9A4202D00A4B9A4204D17E
:1025B000496825F080031943916080F83D4000216F
:1025C00080F83C10084670BD022070BD002C014010
:1025D000000400400008004010B5040003D094F847
:1025E0003D0010B107E0012010BD002084F83C0040
:1025F000204600F01FF8022084F83D00211D2068CD
:1026000001F0E0F9012084F8460084F83E0084F8E7
:102610003F0084F8400084F8410084F8420084F8C8
:10262000430084F8440084F8450084F83D0000200D
:1026300010BD000008B500680B49884212D10B4854
:10264000816941F4006181618069002200F40060C9
:10265000009005211920FEF745FFBDE8084019202C
:10266000FEF732BF08BD0000002C01400010024000
:1026700090F83D10012901D001207047022180F817
:102680003D100168CA6842F00102CA6000680B4947
:10269000884208D0B0F1804F05D00949884202D065
:1026A0000849884204D1816801F00701062903D056
:1026B000016841F00101016000207047002C0140D9
:1026C000000400400008004070B5044690F83C004B
:1026D0000025012817D0012684F83C60022084F8E8
:1026E0003D002068826822F0770222F47F428260F7
:1026F0000868502838D00DDC20284FD005DC90B376
:10270000102811D14AE0022070BD302846D0402860
:102710000AD13BE060282FD070280DD0B0F5805F43
:1027200003D0B0F5005F12D0012584F83D60002091
:1027300084F83C00284670BDCB68D1E901212068AF
:1027400001F07CF92068816841F0770109E0CB68ED
:10275000D1E90121206801F071F92068816841F414
:1027600080418160E1E719E0CA684968206801F0AA
:1027700077F95021206806E0CA684968206801F0AE
:1027800080F96021206801F063F9CEE7CA684968E2
:10279000206801F065F940212068F4E722680146CD
:1027A0001046F0E770472DE9F04104460068C6681E
:1027B00005694FF00007A90713D5B10711D5F91E18
:1027C000016101202077206880698007204602D0BF
:1027D000FFF7E8FF04E000F07EF8204600F07CF808
:1027E0002777680716D5700714D521686FF00400A5
:1027F0000861022020772068806910F4407F20461D
:1028000002D0FFF7CFFF04E000F065F8204600F0AB
:1028100063F82777280715D5300713D521686FF09F
:1028200008000861042020772068C06980072046DE
:1028300002D0FFF7B7FF04E000F04DF8204600F0AB
:102840004BF82777E80616D5F00614D521686FF007
:1028500010000861082020772068C06910F4407FCC
:10286000204602D0FFF79EFF04E000F034F8204637
:1028700000F032F82777E80708D0F00706D0216883
:102880006FF001000861204600F027F8280608D5FF
:10289000300606D521686FF0800008612046FFF7FA
:1028A00064FE680608D5700606D521686FF0400002
:1028B0000861204600F018F8A8060AD5B00608D529
:1028C00021686FF0200008612046BDE8F041FFF765
:1028D0004DBEBDE8F081704770470068B0F1804F91
:1028E00001D1FEF767BD7047704770477047000021
:1028F000F8B5016804460868CA684B6910F00F0F04
:102900004FF0000559D003F0010602F490773743E9
:1029100065D0C10705D0D10503D5616C41F0010137
:102920006164410705D5D90703D0616C41F002010C
:102930006164810705D5D90703D0616C41F00401BA
:102940006164010707D502F02001314303D0616CB7
:1029500041F008016164616C00293AD0800604D519
:10296000900602D5204601F086FA20684069616C25
:10297000C0F38010090700D460B3204601F054FA78
:1029800020684069400621D52068143050E8001FB7
:1029900021F0400140E80012002AF5D1E06BA8B117
:1029A0006D494163E06BFEF77DF9002811D0E06BC3
:1029B000416B01B0BDE8F040084783060FD5930690
:1029C0000DD52046BDE8F84001F055BA2046FFF786
:1029D0008DFFF8BD2046FFF789FF6564F8BD266BC3
:1029E0002023012E7CD1C6067AD5D60678D5086874
:1029F0004868009048694FF00206400640D5E16BF8
:102A0000086840680004000CE8D0A28D8242E5D935
:102A1000E085886920282DD020680C3050E8001F00
:102A200021F4807140E80012002AF5D120681430AA
:102A300050E8001F21F0010140E80012002AF5D102
:102A40002068143050E8001F21F0400140E80012D7
:102A5000002AF5D184F84230256320680C3050E814
:102A6000001F21F0100140E80012002AF5D1E06BB0
:102A7000FEF7F4F86663A08DE18D401A81B22AE07A
:102A8000A08DE18D401A81B2E08D0028A6D00029EA
:102A9000A4D022680C3252E8000F20F4907042E873
:102AA0000007002FF5D12068143050E8002F22F0E5
:102AB000010240E80027002FF5D184F84230256359
:102AC00020680C3050E8002F22F0100240E800236C
:102AD000002BF5D166632046FFF707FFF8BDFFE73F
:102AE00005062BD5150629D594F841002128F5D1E6
:102AF000A068B0F5805F01D12069B0B1206A411CA7
:102B00002162216800784860E08C401E0004000CBF
:102B1000E084E3D12068C16821F08001C1602068B1
:102B2000C16841F04001C160D8E7206A0088C0F365
:102B300008004860206A801C2062E5E74006CDD589
:102B40005006CBD5CA68204622F04002CA6084F8FD
:102B5000413000F028F9C1E7193E000870B50400C3
:102B600004D094F84100002510B106E0012070BDAA
:102B700084F84050204600F023F8242084F84100D7
:102B80002068C16821F40051C160204601F0D4F9E9
:102B90002068016921F4904101612068416921F0B8
:102BA0002A0141612068C16841F40051C160656437
:102BB000202084F8410084F842006563002070BD45
:102BC0002DE9F04385B0002400940194029403940D
:102BD000064603684448DFF80CC1022103220515AC
:102BE00010274FF08008634539D1836943F480434F
:102BF0008361836903F480430493836943F004038E
:102C000083618069DFF8E49000F00400049008021A
:102C1000CDE90001039269464846FEF7D5F9CDE9B2
:102C20000054694648460294FEF7CEF9314D3048CB
:102C30002860C5E90174C5E903846C61AC6128466C
:102C4000EC61FEF725F908B1FDF72AFEB563002215
:102C5000052125206E62FEF745FC25203CE0DFF8CB
:102C600098C063453AD1C36943F48023C361C36903
:102C700003F480230493836943F00803836180692C
:102C8000CDE9005100F00800CDE903201B4D694655
:102C90002846FEF799F9E814CDE90004694628466C
:102CA0000294FEF791F91248154D28382860C5E9BD
:102CB0000174C5E903846C61AC612846EC61FEF7E0
:102CC000E7F808B1FDF7ECFDB563002205212720E8
:102CD0006E62FEF707FC2720FEF7F6FB05B0BDE8A5
:102CE000F08300000038014000100240000801405D
:102CF000440002401404002000480040000C014041
:102D00005804002070472DE9F843044690F841002C
:102D1000984616460D46202802D00220BDE8F883CA
:102D200085B17EB100206064212084F84100FEF767
:102D300049FAA6848146E684A0682027B0F5805F22
:102D400002D003E00120E9E7206910B12E460025FA
:102D50000EE000260CE08021204601F049F9A8B9D8
:102D6000C6B116F8010B21684860E08C401EE08473
:102D7000E08C4B464FF00002CDF800800028EAD1ED
:102D80004FF04001204601F033F940B184F8417022
:102D90000320C3E735F8020BC0F30800E3E784F82B
:102DA00041700020BAE7704702480021017041706D
:102DB0008170704715000020FEE7F8B5044641F029
:102DC00080008DF8000017461E46A188002220686A
:102DD000FEF7F2F94FF4FA652B4601226946A06925
:102DE000FFF718FAA069FFF7D6F80128FAD12B46A9
:102DF00032463946A069FFF70DFAA069FFF7CBF814
:102E00000128FAD1A18801222068FEF7D5F9F8BD82
:102E100010B51A2100F0A7F8A43810BD70B50C4603
:102E20000546012100F09FF8024644B1012C0BD069
:102E3000032C0FD0052C13D0062C17D01BE000203C
:102E400002F0F802E86116E0012002F0F802521CDC
:102E5000E86110E0032002F0F802D21CE8610AE009
:102E6000052002F0F802521DE86104E0062002F09D
:102E7000F802921DE8612846BDE87040012100F08B
:102E8000E4B970B504460021FFF7C8FF0A2001F03D
:102E90006BFF0121204600F066F805460A20FEF788
:102EA0005DF845F080020121204600F0CEF9642053
:102EB00001F05AFF2046216A00F0F4F894F82A1035
:102EC000204600F043F994F82B10204600F01FF93B
:102ED00023220C21204600F0B8F9204600F060F9CA
:102EE00094F82410204600F03BF9FF221F212046D1
:102EF00000F0ABF994F8250094F82610000100EBDF
:102F00004100C2B21D21204600F09FF9204600F08A
:102F1000A3F8208D2021020A204600F096F994F8AB
:102F200028202121204600F090F94021204600F081
:102F30001AF840F03F024021204600F086F90121B6
:102F40002046FFF76BFF0120E0610A2001F00CFF33
:102F50004221204600F007F8122802D04FF4CA7030
:102F600070BDC82070BD0EB501F07F018DF808104E
:102F700001210A46009101AB02A900F003F89DF877
:102F800004000EBD2DE9F0470E4615460446818823
:102F90009846DDF8209000680022FEF70DF94FF406
:102FA000FA673B462A463146A069FFF733F9A06924
:102FB000FEF7F1FF0128FAD13B464A464146A06997
:102FC000FFF77EF8A069FEF7E6FF0128FAD1A18895
:102FD0002068BDE8F0470122FEF7EEB82DE9F04188
:102FE00000250E46074614462846294601E031547E
:102FF000401CA042FBDB01213846FFF70FFF1221E6
:103000003846FFF7B0FF40061FD5FF221221384691
:1030100000F01BF913213846FFF7A5FF05461021E4
:103020003846FFF7A0FF02460D21384600F00DF9A3
:10303000AC4200D22546002405E000213846FFF7C7
:1030400092FF3055641CAC42F7DB05213846FFF790
:10305000E5FE2846BDE8F08110B594B00446502244
:103060000F496846FDF723FA94F8241001208840A0
:1030700002F089FB94F825206B4603EBC203D3E9E9
:10308000002302F0F9F902F04FFB102801DD0121C5
:1030900000E00021204600F025F814B010BD00002B
:1030A000F85E000870B50546C8044411C4F3074231
:1030B0000621284600F0C9F8052001F055FEC4F3AA
:1030C00007220721284600F0C0F8052001F04CFE39
:1030D000E2B20821284600F0B8F8BDE870400520AB
:1030E00001F042BE70B50C4605462621FFF73BFFB6
:1030F00014B140F0080201E000F0F7022621284652
:1031000000F0A3F8BDE870400A2001F02DBE10B514
:103110002D2901D22D2105E0F02901D9F02106E069
:10312000782904D805222D3991FBF2F103E00A2217
:103130001E31B1FBF2F1C9B22031CAB20B2100F04D
:1031400084F8BDE810400A2001F00EBE10B50A4612
:10315000092100F07AF8BDE810400A2001F004BE11
:1031600070B50C4606460C2901DD0C2402E0072C44
:1031700000DA07241E21FFF7F6FE05460A2001F0BB
:10318000F3FD64F31F15EAB21E21304600F05DF82E
:103190000A2001F0E9FD3046BDE87040FFF75CBF52
:1031A00010B504461E21FFF7DEFE40F007021E2187
:1031B000204600F04AF8BDE810400A2001F0D4BDD6
:1031C0000521FFF72BBE2DE9F0410F461C461646A0
:1031D00080460121C569FFF721FE0E214046FFF719
:1031E000C2FE02460D21404600F02FF83246222151
:1031F000404600F02AF833463A4600214046FFF7A1
:10320000DCFD03214046FFF709FE12214046FFF78F
:10321000AAFE00070BD5FF221221404600F015F848
:1032200029464046FFF7FAFD0120BDE8F081641E03
:103230002404240C03D0012001F096FDE5E7294683
:103240004046FFF7EBFD0020EFE70EB541F08001AF
:103250008DF8081001218DF804200A46009101AB79
:1032600002A900F001F80EBD2DE9F0470E46154603
:10327000044681889846DDF8209000680022FDF71A
:103280009BFF4FF4FA673B462A463146A069FEF79A
:10329000C1FFA069FEF77FFE0128FAD13B464A46EE
:1032A0004146A069FEF7B6FFA069FEF774FE01284B
:1032B000FAD1A1882068BDE8F0470122FDF77CBF64
:1032C000FEB500241648009401941449029401604C
:1032D00089158160012505730475022606614FF486
:1032E00060214460C161FDF75FFB08B172B6FEE783
:1032F00006200094CDE9015069460948FDF7D2FA4D
:1033000008B172B6FEE7CDE9005669460448FDF7FC
:10331000C9FA002801D072B6FEE7FEBD00240140C4
:10332000080200202DE9F04F85B000244B4800949E
:10333000019402940394816941F0100181618169D3
:1033400001F010010491816941F0200181618169DE
:1033500001F020010491816941F0040181618169DA
:1033600001F004010491816941F0080181618069E3
:10337000DFF8ECA000F008004FF4005504900022A4
:1033800029465046FDF718FF4FF4E0470022394622
:103390003448FDF711FFDFF8D0B04FF40068012288
:1033A00041465846FDF708FF4FF40079012249468F
:1033B0002C48FDF701FF0095022601250396CDE973
:1033C000015469465046FDF7FFFD0320CDE9024058
:1033D000CDE9007569462348FDF7F6FD2802009007
:1033E0002248CDE9010469465846FDF7EDFDCDF8C8
:1033F00000800396CDE9015469465846FDF7E4FD87
:10340000382000901A48CDE9010569461548FDF7B6
:10341000DBFDCDF800900396CDE9015469461148D3
:10342000FDF7D2FD002211460920FEF75BF80920C6
:10343000FEF74AF8002211460A20FEF753F80A2048
:10344000FEF742F8002205211720FEF74BF817205F
:10345000FEF73AF805B0BDE8F08F0000001002401A
:1034600000100140000C0140000801400000111054
:10347000000021101CB50024174801941549009440
:103480000160611EC0E90114FEF74CFC08B172B680
:10349000FEE78DF804408DF805408DF806400122C6
:1034A00001A90D48FEF704FD08B172B6FEE7012040
:1034B0008DF800008DF801008DF8020002468DF8AD
:1034C000034069460448FEF791FC002801D072B61B
:1034D000FEE71CBD002800408C0200200F4810B5FC
:1034E0000D4901604FF48271416000218160C1602B
:1034F0004FF400720161C0E905121022C0E90721F2
:10350000416281620A21C162FEF748FD002801D0B4
:1035100072B6FEE710BD000000300140A00200209E
:1035200010B586B0002418480094019402940394C6
:10353000049414490594016041F61F41C0E9011447
:1035400040F2E731C0E903148021C0E90541FFF7EB
:1035500043F808B172B6FEE74FF480500090694618
:103560000948FFF7B1F808B172B6FEE7049404A960
:1035700005480594FEF7FCFF002801D072B6FEE76F
:1035800006B010BD002C0140F8020020FEE7FEE767
:10359000010901EB810100F00F0000EB4100C0B216
:1035A0007047002102E00A38C0B2491C0A28FAD24A
:1035B000090740EA116070472DE9F04104460025F3
:1035C000C07B627BA37B42E0012A16D0032A14D081
:1035D000052A12D0072A10D0082A0ED00A2A0CD0A9
:1035E0000C2A0AD0042A10D0062A0ED0092A0CD0A0
:1035F0000B2A0AD0022A0DD028E01F2B0CD30C2A4C
:1036000005D101221346401C20E01E2B04D30123C8
:10361000521C1BE01C2B02D203F1010316E011D156
:1036200083B29E0710D16426B3FBF6F706FB17366C
:1036300036B94FF4C876B3FBF6F706FB17331BB960
:103640001D2303E01D2B01D1032201236D1C8D429C
:10365000BAD3D1B2E0736173DAB2A27300F050F85A
:103660002073BDE8F08170B50446FDF7ABFD05465B
:103670004FF47A7606E0FDF7A5FD401BB04201D974
:10368000032070BD206840688006F4D5206841683A
:1036900041F010014160002070BD000070B504468B
:1036A0000068416821F010014160FDF78BFD05467F
:1036B0004FF47A7607E000BFFDF784FD401BB0426F
:1036C00001D9032070BD206840688006F4D5002031
:1036D00070BD0168086A496A89B241EA00407047D2
:1036E000006881698AB2C1698BB2816989B28A42F4
:1036F00003D0C06961F31F40704743EA024070473E
:10370000F0B56424C1EBC1030927A500072603EB2C
:1037100001130329B3FBF7F100F5FA6011440144EA
:103720000AD2401EB0FBF4F201EB9001B0FBF5F0C1
:10373000891A0844001D08E0B0FBF4F201EB900187
:10374000B0FBF5F0891A0844801CB0FBF6F106FBCB
:103750001100C0B2F0BD70B50D4606460024FFF75B
:1037600082FF48B93168280C08623168A8B2486203
:103770003046FFF793FF00B10124204670BD70B5BD
:103780000D4606460024FFF76EFF48B93168280C45
:1037900088613168A8B2C8613046FFF77FFF00B189
:1037A0000124204670BDF8B5044640684FF482738A
:1037B000984217D1A0684FF48065B0F5004F01D052
:1037C000A8420FD12068066826F0400606606068AF
:1037D000984207D1A068A84204D100920B4600226B
:1037E000012103E000920B4600228021204600F0D8
:1037F00023F8002804D0606D40F0200060650320AD
:10380000F8BDF8B515460E460B4600920446012257
:10381000022100F011F840B93346002280212046F1
:10382000009500F009F8002804D0606D40F02000F9
:1038300060650320F8BD00002DE9F8431E4691465F
:1038400088460446089DFDF7BDFC401B351AFDF770
:10385000B9FC074625480068C0F3CB30684338E020
:10386000701C37D0FDF7AEFCC01BA84203D215B1C7
:10387000009860B32CE02068416821F0E0014160CD
:103880006068B0F5827F0BD1A068B0F5004F02D020
:10389000B0F5806F04D12068016821F0400101601B
:1038A000A06AB0F5005F09D12068016821F40051D9
:1038B00001602068016841F400510160012084F832
:1038C0005100002084F850000320BDE8F883002553
:1038D000401E00902068816838EA010004D0002171
:1038E0004945BDD10020F0E70121F9E74000002063
:1038F000012000F0D3FEFBE710B5502080F31188C3
:10390000BFF34F8FBFF36F8F01F06CFC18B1044908
:103910004FF080500860002080F3118810BD000037
:1039200004ED00E030B593B028216846FCF7F1FDC6
:1039300014210AA8FCF7EDFD00240F9409200121B1
:1039400010940090119412944FF4803004910691D9
:10395000CDE901040225CDE907504FF4E0100990AC
:103960006846FDF7BBFF08B172B6FEE70F20CDE950
:103970000A054FF48060CDE90C4002210AA80E949C
:10398000FDF7B0FE08B172B6FEE703200F904FF4CA
:1039900000701090800111900FA8FDF72DFE0028F7
:1039A00001D072B6FEE713B030BD70470148FEF794
:1039B000FABE0000F80200200148FEF7F4BE000045
:1039C000F0060020F0B50268194B1A4C1A4D4FF062
:1039D0008047984205D0B84203D0A04201D0A84207
:1039E00003D122F070064A683243984205D0B842AB
:1039F00003D0A04201D0A84203D122F44074CA6887
:103A000022434C6922F08002224302608A68C2622B
:103A10000A688262984201D109690163012141610A
:103A20000169C90703D0016921F001010161F0BDFD
:103A3000002C0140000400400008004010B58468DC
:103A400042EA032224F47F440A432243826010BDE9
:103A5000826822F070020A4342F0070181607047D9
:103A600010B5036A046A24F001040462846924F036
:103A7000F00444EA021423F00A020A438461026259
:103A800010BD10B5036A046A24F01004046284694E
:103A900023F0A00324F4704444EA023243EA011103
:103AA0008261016210BD0000194E1A4C06F1100728
:103AB00006F1200520782988002226F81010698850
:103AC00027F810101146104636F810301A4437F80F
:103AD0001030401CC0B219440828F5D3C2F3CF00FF
:103AE000A880C908E98000F0EDFAA860E88800F035
:103AF000E9FAE8602078401CC0B22070082801D3A1
:103B0000002020704FF4FA7001F02EF9D2E7000087
:103B1000D80100201400002000240D4E0D4D4FF45C
:103B20009677A046307878B101F056FB011BB94278
:103B30000AD386F80080A9784246491CC9B2A97008
:103B4000012900D9AA7004460A2001F00DF9E9E71D
:103B5000210000201500002008B5FFF725F901F02D
:103B60003BFB0D4C0090E51CA07810B1012805D15D
:103B700002E000F0FBFA01E000F02EFB2078295C67
:103B800001F058FC20780821401C00F0070020704C
:103B9000684601F00FF9E7E7150000200B4F0C4EC7
:103BA00001250024397805FA04F00842305D01D07F
:103BB000012100E0002100F0D9FF641CE4B2042CD4
:103BC000F0D3642001F0D0F8EBE700000000002003
:103BD0006C5E0008A8B000F00DFC012620225D49B3
:103BE0001CA8FCF764FC4FF055095B48FFF7E8FAA6
:103BF0005A4F5B4CE8460DF1200A387800287CD0FB
:103C000000203870202269465348FFF7E7F905463F
:103C10005148FFF7FDF86060042D33D39DF8000094
:103C2000AA282FD108EB050111F8011C5529F8D15C
:103C3000072D28D39DF80110B142F2D19DF8021052
:103C4000B1297FD19DF803102170BDF8041008F14F
:103C500001004DBA032100F06BFA85420CD12378A4
:103C6000324640A108A8FCF7FFFA08A8FCF700FCC0
:103C700082B2322308A902E032231C2242A1494821
:103C8000FFF741F85EE0042D5CD19DF80100B042E1
:103C900058D19DF8020088BBE9024348FDF784FA39
:103CA000424855460DF1700C81681C91C0681D900A
:103CB000AA208DF820008DF8216022208DF82200A6
:103CC000032000212B185CF82120001D491C1A60DC
:103CD000C0B20829F6DB61782954491C401C617088
:103CE000C0B2AA4605F80090401CC5B224210AF1D2
:103CF000010000F01DFA020A01E026E022E00AF8C5
:103D000005206D1CE9B255220AF80100491CC8B211
:103D100064230AF80020401CC2B208A90E48FFF72D
:103D200052FA23A03223006826908DF8996004226D
:103D300026A90948FFF747FA0748FFF741FA052087
:103D400001F012F80448FFF73BFA0A2001F00CF8E2
:103D500053E70000705E0008AC0100202000002046
:103D6000000000204E4F4445202530325820524557
:103D70004C415920434D443A2073746174653D3081
:103D800078253032580D0A004E4F44452052454C9C
:103D9000415920434D4420435243204552524F52F3
:103DA0000D0A00004003002000100140F80100202F
:103DB000AA00A155144C0020144E154DE0714FF48B
:103DC0007A77002211491348FDF73FFF002210497E
:103DD0001048FDF713FFB07820707078607030786D
:103DE000A070A87820712878E07068786071E87811
:103DF000A071E07928B10020E071384600F0B4FFEE
:103E0000DFE70120F8E700000C0000202C00002074
:103E10002F0000208C02002010B5406A0021C185CF
:103E2000C184FEF763FD10BD01680C3151E8002F1D
:103E300022F4907241E80023002BF5D1016814317F
:103E400051E8002F22F0010241E80023002BF5D1B8
:103E5000016B012909D101680C3151E8002F22F0D2
:103E6000100241E80023002BF5D1202180F84210F8
:103E700000210163704708B590F84210222901D053
:103E8000022008BD82684FF480539A4201D1016933
:103E900021B1816A9A421BD04AB10AE00268816A64
:103EA0005268C2F308020A80816A891C08E002692C
:103EB00072B10268526802F07F020A70816A491C7E
:103EC0008162C18D491E0904090CC18503D01BE024
:103ED00002685268F1E70168CA6822F02002CA60ED
:103EE0000168CA6822F48072CA6001684A6922F0D7
:103EF00001024A61202180F8421000214163026BD7
:103F0000012A03D0FEF7FEFE002008BD0163016810
:103F10000C3151E8002F22F0100241E80023002B61
:103F2000F5D101680A68D20602D50A68496800918D
:103F3000818DFEF7DAFCE7E770B504460068016999
:103F4000E26821F44051114301612169A0680843EE
:103F5000616908432168CA6841F20C639A430243CD
:103F6000CA6020684169A26921F44071114341612E
:103F70001E492068884202D1FDF77AFC01E0FDF776
:103F800067FC00EBC00101EB001260686421800057
:103F9000B2FBF0F3B3FBF1F36FF018067343B2FB1F
:103FA000F0F5B2FBF0F605EB8305322303EB0515C4
:103FB000B5FBF1F5B6FBF1F605F0F00505EB0615DE
:103FC000B2FBF0F6B2FBF0F0B0FBF1F06FF01802CC
:103FD000504306EB800003EB0010B0FBF1F02168CA
:103FE00000F00F002844886070BD000000380140D8
:103FF0002DE9F843984617460D460446089E24E0EE
:10400000701C22D0FDF7DEF8A0EB0800B0421AD8F1
:10401000CEB12068C168490717D5802D15D0402D35
:1040200013D00168C94309070FD40168002540680F
:1040300000902046FFF7F8FE0820606484F84050A6
:104040000120BDE8F8830320FBE72068006835EA1B
:10405000000004D00020B842D2D00020F1E70120B7
:10406000F9E700000148FEF743BC000040030020D0
:104070000148FEF73DBC000088030020FEE7090769
:10408000090E002804DB00F1E02080F800147047DE
:1040900000F00F0000F1E02080F8141D70470021AF
:1040A0004FF07E5001F042BC012101F0A0BE002182
:1040B000084601F03BBC30380A2801D20120704785
:1040C0000020704770B501F00BFD134901F02EFC84
:1040D000124D294601F018FD04460146284601F01C
:1040E000DFFD0F4E05463146204601F00DFD294605
:1040F00001F01CFC314601F019FC00F0B3F809494D
:1041000001F0ACFB0146084801F010FCBDE870402E
:10411000064901F0C5BD000000F07F453333534030
:1041200000401C464EF9534100E0764533938843E6
:10413000F0B505464FF6FF742046002241F22106F5
:1041400011E0AB5C80EA03200023070403D586EA74
:10415000400080B201E004EA40005B1CDBB2082BA7
:10416000F3D3521C92B28A42EBD3F0BD30B5174A5A
:104170000A2017499478B4FBF0F3CD5C154B1D7001
:10418000D579002DB4FBF0F500FB15440C5D01D191
:1041900004F07F045C705478B4FBF0F54D5D9D70C5
:1041A000B4FBF0F500FB15440C5DDC701278B2FB3B
:1041B000F0F40C5D1C71B2FBF0F400FB1420085C01
:1041C0005871FF209871D87130BD00000C0000209C
:1041D000905E000818000020F0B51E480068002816
:1041E00000DA4042C3B21C48642504780A20B4FBBC
:1041F000F5F1B1FBF0F200FB1211184A565C1849B8
:104200000E70B4FBF0F6B6FBF0F700FB1766965D98
:104210004E70B4FBF0F600FB1644145D8C70FF2466
:10422000CC70BF240C71B3FBF5F4B4FBF0F500FBCC
:104230001544145D4C71B3FBF0F4B4FBF0F500FBD6
:104240001544145D8C71B3FBF0F400FB1430105C6A
:10425000C871F0BD0400002001000020905E00083D
:10426000180000202DE9F0410026A0F50001B1F171
:10427000FE4F7DD200F500226FF07E0101EBE2518E
:10428000C2F3025477184FF07E52A0EBC15602EBF6
:10429000045557EA040047D02946304601F0DEFABB
:1042A00080462946304601F0FBFC414601F03EFBCA
:1042B0000546014601F028FC8046454901F024FCF2
:1042C000444901F0CBFA06464146284601F01CFC61
:1042D000314601F019FC0646384601F0E9FB074675
:1042E0003D4901F011FC3D49794451F8241001F099
:1042F000B5FA314601F0B2FA06460121284601F02E
:1043000076FD314601F0AAFA05463846344901F0F7
:10431000FBFB3449794451F8241001F09FFA2946F7
:10432000BDE8F04101F09ABA4FF07E51304601F0FD
:10433000B7FC05462C4901F0E7FB2C4901F08EFA49
:10434000294601F0E1FB2A4901F088FA294601F0EB
:10435000DBFB6FF0824101F081FA044629460846F2
:1043600001F0D2FB214601F0CFFB0146284600E0D8
:1043700003E0BDE8F04101F071BA4FF07F42B2EBCB
:10438000400F03D2BDE8F041FFF78EBEB0F1FF4F02
:1043900008BFBDE8F081B0F1004F06D90120FCF75D
:1043A000E7F8BDE8F041FFF782BE30F0004105D0EC
:1043B0006FF01606172101F01AFD5BE70220FCF7EB
:1043C000D7F8FFF76CFE80F00040BDE8F0810000F8
:1043D00066F1CC3EAAAA2A3FF4FD0538B81C0000BD
:1043E0000070313F6C1C000021ED423E0A1180BE7E
:1043F000C1ABAA3E00B58BB0684600F033F92C2261
:1044000069461348FCF753F81148124902C0491590
:1044100020F8041B104902C0CA14028041608915AB
:1044200001810E49C16040F2B3114161072101765B
:10443000417601218176FF2181776421C1770821AE
:1044400081830BB002485DF804EBFEF71ABD000053
:10445000AC010020000C014000080140A002002037
:104460008AB003220021012000F0AAFD5A4903224C
:1044700008600021012000F0A3FD584DA860FCF762
:10448000A1FFFFF74FFAFEF74DFF5548416941F094
:10449000010141614069002200F001000090052106
:1044A0000B20FDF71FF80B20FDF70EF80022052169
:1044B0000C20FDF717F80C20FDF706F80022052167
:1044C0000E20FDF70FF80E20FCF7FEFF4648454989
:1044D000002401604549C0E901144FF48041C0E95E
:1044E000034144618461C4610462FCF771FE08B158
:1044F00072B6FEE7FEF7F2FF3E483D490C2601602A
:104500004FF4E131C0E90114C460C0E9044684619C
:10451000C461FEF723FB08B172B6FEE7FEF7D0FEDA
:10452000FEF7A8FFFEF7FCFF324833494830016030
:104530004FF41651C0E90114C460C0E90446846117
:10454000C461FEF70BFB08B172B6FEE726480222F3
:104550002A493038FCF7FCFA0126CDE90064002333
:10456000720227A1294800F0DFFDCDE90064002395
:10457000802227A1284800F0D7FDCDE90064002360
:10458000802226A1274800F0CFFDCDE9006400235A
:10459000802225A1274800F0C7FDCDE90064002353
:1045A000802225A1264800F0BFFDCDE9006400234C
:1045B000802224A1264800F0B7FD00F041FC1C2217
:1045C000244902A8FBF773FF002102A800F072F84B
:1045D000686000F06AF8FEE7080000202000002074
:1045E000001002400054004038020020A086010064
:1045F000003801404003002000480040F80100203E
:104600005461736B4E6F646500000000D53B000879
:104610005461736B41646300A93A00085461736B81
:1046200052544300B53D00085461736B4869656E90
:1046300054686900593B00085461736B4C65640011
:104640009D3B00085461736B427574746F6E00007B
:10465000193B00089C5E000801460020842900D018
:10466000C81C704700B58BB040F2B111089107210A
:104670008DF824108DF8251001218DF82610FF21CA
:104680008DF82A1064218DF82B100821ADF8281020
:104690002C226946FBF70BFF0BB000BD10B500B92B
:1046A000012000F061FB002010BD10B500F0C8FB38
:1046B000002010BD7FB50D4604464169B0F90800E1
:1046C00081B1A16971B1FFF7C7FFD4E905128DE887
:1046D0000700D4E900102B46226900F052FD039038
:1046E00004B070BDFFF7B8FF03A9CDE90001208A2F
:1046F0002B4682B2D4E9001000F016FD012801D04B
:104700000020EDE70398EBE72DE9F041184C0F4648
:104710000546E6682068001D00F034FA38B92068C4
:1047200090F82C1001208840216981432161681C88
:1047300007D137B12168BDE8F0410E48091D00F0EE
:1047400065BA20683544B5424560216805D2A06B42
:10475000BDE8F041091D00F041BA606B091D00F091
:104760003DFAA06A854200D2A562BDE8F081000052
:1047700044000020140800202DE9F041054600F017
:1047800051FA2E4CA068401CA06020682C4F10B13C
:10479000606940B32DE02560A068012829D100267A
:1047A00006EB860007EB800000F00AFA761C072E65
:1047B000F6D323488C3000F003FA2148A03000F0F3
:1047C000FFF91F48B43000F0FBF91D48C83000F075
:1047D000F7F91B48DC3000F0F3F919488C306063BE
:1047E0001430A06305E02068E96AC06A884200D8F6
:1047F0002560606A401C6062E96A01202269884085
:104800001043206101EB810007EB8000291D00F0BF
:10481000FDF900F027FA606900280CD02068E96AE9
:10482000C06A884207D207494FF080500860BFF342
:104830004F8FBFF36F8FBDE8F08100004400002070
:104840003807002004ED00E010B5044690F8510050
:1048500058B101280CD002280FD0502080F31188C5
:10486000BFF34F8FBFF36F8FFEE7206B00F00EFAA0
:104870002046BDE8104000F009BA10BD10484FF4C2
:104880000051420706D0C01D0D4920F00700411A13
:10489000C1F500510B4A00230144C2E90003083965
:1048A000183A21F0070111604B600B600B1AC0E948
:1048B000001393604FF00040536050617047000058
:1048C0002808002098000020144E154CA6F1C807B7
:1048D0004FF08058DFF84C9012E000BF00F0A2F9D2
:1048E000F068C568281D00F04DF9A068401EA06062
:1048F0006068401E606000F0B5F92846FFF7A4FF2D
:1049000060680028EAD138680128F9D9C9F8008020
:10491000BFF34F8FBFF36F8FF2E700000008002056
:104920004400002004ED00E00346009829B1026035
:10493000C0E90F31012100F065BB0060F8E72DE907
:10494000F0479A46DDE9098481466FF00303206B46
:1049500003EB82021044089E20F00707780707D077
:10496000502080F31188BFF34F8FBFF36F8FFEE7A6
:10497000002561B1002023180A5C83F834200A5C0A
:1049800012B1401C1028F6D384F8435001E084F89B
:104990003450072E00D30626E662C4E91165201DB7
:1049A00000F019F904F1180000F015F92461C6F1BE
:1049B00007006462A061E56484F85050524649469D
:1049C000384600F0C1F82060B8F1000F01D0C8F8F7
:1049D0000040BDE8F087000030B5114900E0114605
:1049E0000A688242FBD34B685C18844203D140685A
:1049F00018444860084643681C18944209D1084C82
:104A0000183C2468A24209D052681A4442600A68DD
:104A100012680260814200D0086030BD0460F9E78E
:104A2000980000200648416B096829B1416BC968AC
:104A3000C9684968816270474FF0FF31FAE70000AA
:104A40004400002008484068401C4FF0500080F3AC
:104A5000118804D0BFF34F8FBFF36F8FFEE7BFF312
:104A60004F8FBFF36F8FFEE7A00000202DE9F041CC
:104A70000546002700F01AFA324E306808B9FFF7F1
:104A8000FDFE706905424ED1C5B3083568070ED0EA
:104A900005F00700C0F108000544680707D0502062
:104AA00080F31188BFF34F8FBFF36F8FFEE72DB3F5
:104AB0007068854237D82348183001460C6801E0F9
:104AC00020460C466168A94202D221680029F7D12C
:104AD00031688C4227D00768216801606068083718
:104AE000411B10290FD96019420708D0502080F3CC
:104AF0001188BFF34F8FBFF36F8FFEE713E0416064
:104B00006560FFF769FF61687068401A7060B2689D
:104B1000904200D2B060706901430020C4E90001F6
:104B2000F068401CF06000F0FDFB780707D05020D3
:104B300080F31188BFF34F8FBFF36F8FFEE73846C6
:104B4000BDE8F0818000002010B5031F4FF0807495
:104B50001C601B1F21F001011960191F024B0B6023
:104B6000143940380A6010BD454A0008044A012340
:104B70008340507809B1184300E098435070704763
:104B800015000020D0E9013201699A60D0E90123C3
:104B90005A604A68824201D182684A6000220261FA
:104BA0000868401E0860086870470000034B0360F7
:104BB00003F1540008608020106070479C040020BE
:104BC00000F108014FF0FF32C0E90112C16001613C
:104BD00000210160704700210161704730B50B680A
:104BE0005A1C02D000F1080202E0026904E02246E9
:104BF000546825689D42FAD953684B6099608A6071
:104C0000516008610168491C016030BD42684A601A
:104C100093688B6093685960916008610168491CD2
:104C200001607047502080F31188BFF34F8FBFF3AE
:104C30006F8F0A494868401C486001280CD1084819
:104C4000006810F0FF0F07D0502080F31188BFF3E9
:104C50004F8FBFF36F8FFEE770470000A00000206A
:104C600004ED00E00849486828B1401E486001D1C1
:104C700080F311887047502080F31188BFF34F8F65
:104C8000BFF36F8FFEE70000A000002070B5002882
:104C90002AD0164DA0F1080460686969084207D15E
:104CA000502080F31188BFF34F8FBFF36F8FFEE763
:104CB00022683AB1502080F31188BFF34F8FBFF3C1
:104CC0006F8FFEE78843606000F0F0F86068696805
:104CD000084468602046FFF77FFE2869401C286171
:104CE000BDE8704000F01EBB70BD000080000020D9
:104CF0004FF0E02000210161816105494FF47A7293
:104D00000968B1FBF2F1491E416107210161704759
:104D10004000002010B5FBF783FA114910280ED38C
:104D200000F1E02090F8F0030A78904207D250207A
:104D300080F31188BFF34F8FBFF36F8FFEE70948F1
:104D40000068896800F4E060884207D9502080F349
:104D50001188BFF34F8FBFF36F8FFEE710BD0000C8
:104D6000A00000200CED00E010B5020014D00F48A8
:104D7000006B38B1502080F31188BFF34F8FBFF321
:104D80006F8FFEE700F092F800211046FFF7BCFCA1
:104D900000F0C8FA002807D105494FF0805008609C
:104DA000BFF34F8FBFF36F8F10BD00004400002092
:104DB00004ED00E070B50D4604000BD095B11E4A1D
:104DC000106BB8B1502080F31188BFF34F8FBFF341
:104DD0006F8FFEE7502080F31188BFF34F8FBFF332
:104DE0006F8FFEE7502080F31188BFF34F8FBFF322
:104DF0006F8FFEE700F05AF8D26823685919934282
:104E000004D98B420AD9914202D807E08B42FAD9E1
:104E1000881A21600021FFF777FC00E0216000F094
:104E200081FA002807D105494FF080500860BFF390
:104E30004F8FBFF36F8F70BD4400002004ED00E082
:104E400010B586B00024039405AA04A903A804940D
:104E5000FFF7ACFEDDE903010094CDE9011000236A
:104E60000EA11048059A00F08CF90F490028C8627D
:104E700011D0502080F31188BFF34F8FBFF36F8F95
:104E80004FF0FF30886201204861CC6006B0BDE879
:104E9000104000F041B806B010BD000049444C4538
:104EA00000000000C9480008440000200248016BCF
:104EB000491C016370470000440000201448016B46
:104EC00011B10121C16170470021C1610169B1FACD
:104ED00081F1C1F11F0101EB81020E4951F822302D
:104EE0006BB101EB820101F108034A6852684A6024
:104EF0009A4201D152684A60D168016070475020DF
:104F000080F31188BFF34F8FBFF36F8FFEE7000070
:104F100044000020380700201CB52649087801907D
:104F2000FF20087008788DF800009DF800009DF8BB
:104F3000002000F0F000904207D0502080F311884C
:104F4000BFF34F8FBFF36F8FFEE79DF800001A4C41
:104F500000F0500020700720A06005E09DF80020C0
:104F600052008DF80020401E9DF800201206F5D456
:104F7000A060032807D0502080F31188BFF34F8F23
:104F8000BFF36F8FFEE74FF44070A0600198087088
:104F90000A48016841F470010160016841F0704104
:104FA0000160FFF7A5FE00206060FBF703F9002019
:104FB0001CBD000000E400E0A000002020ED00E0A7
:104FC000F8B517460E46050013D005FB06F048302D
:104FD000FFF74CFD04000AD0002084F8460004F1DD
:104FE00048023B46314628460094FFF79DFC204688
:104FF000F8BD502080F31188BFF34F8FBFF36F8F40
:10500000FEE7000070B50D46040025D0FFF70AFE4C
:10501000D4E90F20216802FB0011A1600021A163E7
:10502000216861600A46D4E90F01401E00FB01219E
:10503000E16021464FF0FF3001F8440F487004F161
:1050400010008DB1FFF7BCFD04F12400FFF7B8FD9F
:10505000FFF708FE012070BD502080F31188BFF3D8
:105060004F8FBFF36F8FFEE721690029F0D000F06A
:105070001FF90028ECD004494FF080500860BFF3BE
:105080004F8FBFF36F8FE3E704ED00E070B50E467E
:10509000040009D0206C78B1502080F31188BFF350
:1050A0004F8FBFF36F8FFEE7502080F31188BFF35F
:1050B0004F8FBFF36F8FFEE7206848B9A06838B103
:1050C000502080F31188BFF34F8FBFF36F8FFEE73F
:1050D000FFF720FE5020EFF3118580F31188BFF316
:1050E0004F8FBFF36F8FA16BE06B884218D994F993
:1050F0004500491CA163411C04D0401C84F84500B4
:1051000001200EE0606A0028FAD004F1240000F0CB
:10511000CFF80028F4D0002EF2D001203060EFE765
:10512000002085F3118870BD2DE9FF5F8346DDE91E
:105130000E87994616468A469000FFF797FC0500B1
:105140001CD05420FFF792FC040014D000202563EB
:1051500084F85100CDE90240CDE900874B46324644
:1051600051465846FFF7EBFB2046FFF705FB0120B1
:1051700004B0BDE8F09F2846FFF788FD4FF0FF30F0
:10518000F6E7F0B585B0DDE90B640A9DA6B1DCB1A8
:10519000542700972663022684F85160002604AF46
:1051A000CDE90246CDE90057FFF7C9FB2046FFF7DE
:1051B000E3FA049805B0F0BD502080F31188BFF3E6
:1051C0004F8FBFF36F8FFEE7502080F31188BFF33E
:1051D0004F8FBFF36F8FFEE70148C0687047000034
:1051E000440000202DE9F0412F4C0026206B28B10F
:1051F000A069401CA0613046BDE8F081E5686D1CE7
:10520000E56013D1606B006838B1502080F31188DD
:10521000BFF34F8FBFF36F8FFEE7606BA16B6163CE
:10522000A063206A401C2062FFF7FCFBA06ADFF845
:105230007C80854209D3606B0068A0B1606BC06858
:10524000C7687868854211D2A0622068C06A00EB06
:10525000800158F82100012800D90126E0690028C2
:10526000C9D00126C7E74FF0FF30EDE7381DFFF743
:1052700089FCB86A18B107F11800FFF783FCF96AD6
:105280000120226988401043206101EB810108EB75
:105290008100391DFFF7BAFCF86A2168C96A8842A3
:1052A000C9D30126C7E700004400002038070020CA
:1052B0002DE9F041C068C468ACB104F1180007469C
:1052C000FFF760FC154D286B0126A0B13946144844
:1052D000FFF79CFCE06A2968C96A88421CD9012052
:1052E000EE61BDE8F081502080F31188BFF34F8F4D
:1052F000BFF36F8FFEE7201DFFF744FCE16A2A69C8
:1053000006FA01F01043286101EB81000449B43929
:1053100001EB8000211DDBE70020E2E744000020D4
:10532000EC0700202DE9F0472C4D00242746286B80
:1053300038B1FFF777FC286B401E2863286B40B11B
:1053400046E0502080F31188BFF34F8FBFF36F8F7B
:10535000FEE7A968224E0120D1B3A6F1B409804628
:105360003068E8B1F068C46804F11800FFF70AFC7F
:10537000201DFFF707FCE06A2A6908FA00F11143D3
:10538000296100EB800109EB8100211DFFF73EFC44
:10539000E06A2968C96A8842E2D3C5F81C80DFE761
:1053A0000CB1FFF73FFBAC6944B14646FFF71AFF6B
:1053B00000B1EE61641EF9D10020A861E86938B13E
:1053C0000849012738070860BFF34F8FBFF36F8F7D
:1053D000FFF748FC3846BDE8F08700004400002095
:1053E000EC07002004ED00E02DE9F041104F00240F
:1053F00005464FF480587E14280601D5012200E0AE
:10540000002241463846FBF7D7FE01223146384696
:10541000FBF7D2FE002231463846FBF7CDFE680688
:10542000641C050EE4B2082CE6D3BDE8F081000050
:10543000000C014070B504460D480D464078FFF75A
:10544000D3FF0120A040C043C0B2FFF7CDFF2846E4
:10545000FFF7CAFF0122074D940321462846FBF7B8
:10546000ABFE21462846BDE870400022FBF7A4BEF3
:1054700015000020000C01402DE9C04130B4DFF8D8
:10548000A0C23CEA111418BF3CEA131400F0EC80EF
:1054900081EA03051CEA111444EAD57418BF1CEA1A
:1054A000131500F0C780A4EB05044FF0004545EA52
:1054B000C12145EAC32341EA505143EA525304F162
:1054C0007F74994204F500344FEAC0204FEAC222AB
:1054D00008BF904200F09C804FEA13650FF240161F
:1054E000765D4FEA134506FB05F7C7F1807706FBAB
:1054F00007F74FEAD737A7FB03687642C8F580382D
:10550000A7FB06CE38BFA8F1010807FB08E64FF05D
:10551000000EA6FB028CE6FB03CEDCF1000CCEF104
:10552000004E38BFAEF1010EA6FB0C584FF000073D
:105530004FF00005E6FB0E87A1FB08C6A0FB07CED7
:1055400016EB0E0645F10005E1FB076515F1E04E8F
:105550007EBFA4F580345FEA46066D4116F18007F0
:1055600045F100054FEA17274FEA066647EA056747
:10557000A6F1DE46B6F1805F4FEA15251FD9384601
:1055800024F0010C05EBC471BCF1FE6F01EB0C11B2
:1055900002D8F0BCBDE8008124425CBF01F5801E4A
:1055A0009EEAC47F02D4F0BCBDE80081244238D416
:1055B000F0BCA1F1C041BDE8004100F049B94FEA9B
:1055C000D22242EA43524FEAD323A7FB02864FEA94
:1055D000D02040EA415007FB03661EEA0E0F4FEA57
:1055E000D12105FB026658BFA6EB0056B6EB00566C
:1055F0004FEA520E4EEAC37E18EB0E0E56EB530ED8
:10560000BDD518EB02085E417F1C55F10005B6E7D9
:105610004FF480154FF000074FF000064FF00008E0
:10562000ADE7F0BC4FF0000001F1C04101F00041D6
:10563000BDE8008111EA0C1F0CEA131500D00CE044
:1056400013EA0C1F00F025804FF00000F0BC81EA47
:10565000030101F00041BDE80081F0BCBDE800415C
:1056600081EA030100F0F4B8F0BCBDE8004170B578
:1056700000F0A0F8097EFC3E00F007B881EA0301C3
:105680004FF0000001F00041704781EA030100F093
:10569000DFB8F0BCBDE800414FF000002149704781
:1056A000FFFDFBF9F7F5F4F2F0EEEDEBE9E8E6E4E7
:1056B000E3E1E0DEDDDBDAD8D7D5D4D3D1D0CFCD6E
:1056C000CCCBCAC8C7C6C5C4C2C1C0BFBEBDBCBBA7
:1056D000BAB9B8B7B6B5B4B3B2B1B0AFAEADACABA2
:1056E000AAA9A8A8A7A6A5A4A3A3A2A1A09F9F9E7C
:1056F0009D9C9C9B9A99999897979695959493932E
:10570000929191908F8F8E8E8D8C8C8B8B8A8989C4
:105710008888878786858584848383828281818047
:105720000000FF070000F87F4FEA41034FEA5353A0
:10573000A3F58063D3F11E03C8BFD3F1210C0CDDA8
:105740004FF0004242EAC12242EA505232FA03FCD0
:105750008CEAE17CACEBE1707047102BC4BF0020F9
:10576000704703F5787CBCF1FF3F04D06FF0004236
:1057700082EA2100704770B500F01CF8499224803D
:1057800000207047F2E710F0004248BF4042B0FAF4
:1057900080F310FA03F10AD0C3F11D0303F580630F
:1057A0004FEA415002EB035202EBD12170474FF018
:1057B000000070470EF1020E2EF0030E5EF8046B2F
:1057C000364205D4012A43EB030515F5001F12D814
:1057D000012841EB010C1CF5001F0CD80ED14FEA3B
:1057E000D17C15F5001F0CEB4C0C0CF1020C08BF22
:1057F0004CEBD37C04E04FF0080C01E04FEAD37C83
:105800000CEB4C0526FA05F606F00706B6F1040C7B
:1058100006D20EEB860CBDE870404CF0010C6047E0
:10582000DFE80CF0090B02024FF000414FF00000DE
:10583000A1F5002170BD19461046012851EB010465
:1058400018BFD4F5001484BF002001F0004170BDE2
:105850000808A0F500114FEA3101704790EA010FE6
:1058600048BF81F0004100F12282421A3CBF801AF9
:1058700089184FEAD0524FF07F4C1CEA410FA2EB3F
:10588000D15318BF9CEA026F00F03B804FF0004CF0
:105890004CEA00204CEA012121FA03FC10EB0C0C2D
:1058A0001ED202F1FF325FEA1C2040EBC25038BF2B
:1058B00070471CF07F0F4FEA400C18BFBCF17F4FC0
:1058C00038BF7047C3F12003994008BF20F00100A2
:1058D000BCF17F4F38BF7047A0F1C04000F0DBB98A
:1058E0004FEA3C00000A40EBC25028BF1CF0FF0FFB
:1058F0004FEA400CE6D018BFBCF17F4F38BF70476D
:10590000EAE79CEA026F05D010EA5C0F08BF00F0DE
:105910000040704710B500F078F900BF64FBBE3E50
:10592000014800F032BA00BF0000C07F4FF47F0C86
:105930001CEAD0121EBF1CEAD11392EA0C0F93EAA4
:105940000C0F00F0858090EA010F48BF42F480728E
:1059500040F4000C41F400002CF07F4120F07F4027
:1059600000B58142A2EB03020FF2081CACEB504ED3
:10597000C0F100009EF800E04FEA4E0E00FB0EFC66
:1059800038BF49004FEA2C1C02F5FA020CFB0EF35B
:105990004FEACE1E4FEA112C4FEAC1210EEB635E97
:1059A00042EB22420EFB0CFC4FEA1C5300FB03119E
:1059B0004FEA112C4FEA01310EFB0CFC4FEADC4C94
:1059C00000FB0C11C14228BF09184CEB03335DF8F2
:1059D00004EB10EB410143EBC250B2F57C0F38BF32
:1059E000704729D512F0F00F1CBF00F1C04000F045
:1059F00000407047008182838485868788898B8CEC
:105A00008D8E8F919293959697999A9C9D9FA0A227
:105A1000A3A5A7A8AAACAEB0B2B3B5B7B9BCBEC077
:105A2000C2C5C7C9CCCED1D4D7D9DCDFE2E6E9EC18
:105A3000F0F3F7FAFE0000004FEA400C0CF1807C16
:105A4000BCF17E4F28BF7047B0F1C04000F023B9D1
:105A500090EA010F0CEAD11348BF42F4807262450C
:105A600038BF634507D213F47F0F16D080EA0100D8
:105A700000F00040704710B500F0C7F8097EFC3E0A
:105A800000F005B880EA010000F00040704780EAAD
:105A9000010000F0004000F0FEB812F47F0F04BFD8
:105AA0000248704780EA010000F0F5B80000C07FAE
:105AB00010F0004148BF4042B0FA80F310FA03F200
:105AC000C3F19D030BD051EAC35101EB12205306E1
:105AD00038BF704700F1010008BF20F00100704797
