:020000040800F2
:100000004025002021020008B3310008DD29000846
:10001000B1310008F1040008793B0008000000003D
:10002000000000000000000000000000890100083E
:100030004305000800000000CD0100081D35000840
:100040003B0200083B0200083B0200083B0200089C
:100050003B0200083B0200083B0200083B0200088C
:100060003B020008450500084B050008F5040008A0
:10007000010500083B0200080D0500083B020008CE
:100080003B0200083B0200083B0200083B0200085C
:100090003B0200083B0200083B0200085105000833
:1000A0003B020008D13500083B0200083B02000873
:1000B000DD3500083B0200083B0200083B02000857
:1000C0003B0200083B0200083B0200083B0200081C
:1000D0003B020008613B00083B0200086D3B000842
:1000E0003B0200083B0200083B02000800F002F857
:1000F00000F03AF80AA090E8000C82448344AAF188
:100100000107DA4501D100F02FF8AFF2090EBAE885
:100110000F0013F0010F18BFFB1A43F0010318473B
:100120004459000064590000103A24BF78C878C1CF
:10013000FAD8520724BF30C830C144BF04680C60ED
:10014000704700000023002400250026103A28BF35
:1001500078C1FBD8520728BF30C148BF0B60704739
:100160001FB51FBD10B510BD00F0EAF81146FFF72E
:10017000F7FF03F0EDFE00F008F903B4FFF7F2FF1C
:1001800003BC00F00DF90000224B19680868B0E8C4
:10019000F00F80F30988BFF36F8F4FF0000080F3FA
:1001A00011884EF00D0E70470000000006480068F0
:1001B000006880F3088862B661B6BFF34F8FBFF363
:1001C0006F8F00DF00BF00BF08ED00E0EFF3098094
:1001D000BFF36F8F0F4B1A6820E9F00F106008B55E
:1001E0004FF0500080F31188BFF34F8FBFF36F8F34
:1001F00004F0CEFB4FF0000080F31188BDE808400A
:1002000019680868B0E8F00F80F30988BFF36F8FB2
:10021000704700BF44000020EFF3058070470000E6
:100220000948804709480047FEE7FEE7FEE7FEE78A
:10023000FEE7FEE7FEE7FEE7FEE7FEE704480549C6
:10024000054A064B70470000CF350008ED00000856
:10025000401F002040250020402100204021002098
:1002600010B5203AC0F00B80B1E81850203AA0E851
:100270001850B1E81850A0E81850BFF4F5AF5FEA85
:10028000027C24BFB1E81850A0E8185044BF18C938
:1002900018C0BDE810405FEA827C24BF51F8043BDF
:1002A00040F8043B08BF7047D20728BF31F8023B33
:1002B00048BF11F8012B28BF20F8023B48BF00F8C7
:1002C000012B70474FF0000200B513469446964646
:1002D000203922BFA0E80C50A0E80C50B1F1200159
:1002E000BFF4F7AF090728BFA0E80C5048BF0CC007
:1002F0005DF804EB890028BF40F8042B08BF704765
:1003000048BF20F8022B11F0804F18BF00F8012BD6
:10031000704770477047704710B500F009F80068E3
:1003200010BD10B5044600F003F8046010BD0000D5
:1003300000487047E01E002000487047E01E002083
:100340007546FFF7F9FFAE4605006946534620F0B3
:100350000700854618B020B5FFF770FFBDE82040C4
:100360004FF000064FF000074FF000084FF0000B71
:1003700021F00701AC46ACE8C009ACE8C009ACE824
:10038000C009ACE8C0098D46704710B50446AFF30C
:1003900000802046BDE81040FFF7EFBE7047000028
:1003A00001491820ABBEFEE72600020070B50446E6
:1003B00000688168C943C90717D1816821F001012C
:1003C000816000F061FD05460AE000BF00F05CFDC1
:1003D000401B022804D920688068C043C00706D0AB
:1003E00020688068C043C007F0D0002070BDA06ABC
:1003F00040F01000A062E06A40F00100E0620120DD
:1004000070BD10B50146406A826A12F0500F05D0E7
:10041000006A026BBDE8104008461047816A41F44B
:100420000071816201688968C1F3424107290CD1DA
:10043000017B51B9816A21F480718162816AC904AA
:1004400003D4816A41F00101816200F00BF910BD13
:1004500010B5406A816A41F040018162C16A41F091
:100460000401C16200F000F910BD10B5406A00F04F
:10047000FAF810BDF8B500260446009600688168B9
:10048000C943C9072DD0816841F001018160164838
:1004900016490068B0FBF1F000E0401E0090002813
:1004A000FBD100F0F1FC054616E000BF00F0ECFCCB
:1004B000401B022810D920688068C043C0070BD0B9
:1004C000A06A40F01000A062E06A40F00100E06223
:1004D00084F824600120F8BD20688068C043C0070C
:1004E000E4D10020F8BD00004000002040420F0091
:1004F000FEE70000014800F083BA0000D0020020AF
:10050000014800F07DBA000058030020014800F0C7
:1005100077BA00001403002030B590F84050012451
:10052000AC40C56B6C60046863604368102B036863
:1005300003D099600068C26030BD9A600068C160F5
:1005400030BD7047082000F095BB102000F092BB32
:1005500010B5202000F08EFBBDE810404FF48070F5
:1005600000F088BB72B6FEE7F8B50024009490F85E
:1005700024202546012A12D0012280F824204A682E
:100580001F23072A0DD20668776B521E02EB8202E8
:1005900093409F430B6893401F43776319E0022009
:1005A000F8BD06680D2A0AD2376BD21F02EB820211
:1005B00093409F430B6893401F43376309E0F76AFA
:1005C0000D3A02EB820293409F430B6893401F4316
:1005D000F7620A68072306680A2A0AD3F7680A3A04
:1005E00002EB420293409F438B6893401F43F760A6
:1005F00008E0376902EB420293409F438B689340C7
:100600001F4337610A68102A01D0112A20D1124BEA
:1006100002689A4217D193681B0219D4936843F475
:10062000000393600968102912D10C490C4A09682B
:10063000B1FBF2F101EB8101490000E0491E00919C
:100640000029FBD104E0816A41F02001816201248C
:1006500080F824502046F8BD0024014040000020CE
:1006600040420F0070477047704700002DE9F0418D
:100670004FF0000704003D467ED0A06A002628B94E
:10068000E66284F82460204600F07EF82046FFF7FA
:100690008DFEA16AC90600D420B1A06A40F0100006
:1006A000A06269E0A16A21F4885141F00201A162CF
:1006B0006268E169237B0A4347EA43010A43A16870
:1006C0004FF48077B94209D0012907D05FF00001CB
:1006D00094F814C0BCF1010F02D00AE03946F7E7E4
:1006E000F3B1A36A43F02003A362E36A43F001037A
:1006F000E3622368D3F804C02CF4694C4CEA010C83
:10070000C3F804C021688B68DFF870C003EA0C03EB
:1007100013438B60A168B9420BD0012909D00CE0CA
:10072000DFF85CC0A3690CEB43330B4343F4006177
:10073000DFE7218A0D05A5F580152168CB6A23F432
:1007400070032B43CB62216889680E4B194091429C
:1007500008D1E662A16A21F0020141F00101A16223
:10076000BDE8F081A06A20F0020040F01000A06215
:10077000E06A40F00100E0620120F1E7FDF7E1FFEF
:1007800000E0FFFFFE0E1FFF70B586B00025064695
:1007900000950195029503950068194988422DD16D
:1007A0001849886940F400708861886900F4007015
:1007B0000490886940F0040088618869694600F007
:1007C000040004900320009001900F4800F05EFAAE
:1007D0000F4C0E48C4E900058020C4E902504000D7
:1007E0002061800060612020C4E90605204600F0F9
:1007F000B1F908B1FFF7B6FE3462666206B070BDAB
:10080000002401400010024000080140080002409E
:10081000D00200202DE9F047894604463B49006894
:100820003B4F0E1D9046884201D0B84207D1306838
:1008300010F4702F03D001252846BDE8F08794F806
:10084000240001280CD0012084F824002046FFF762
:1008500011FE05004FF0000004D084F82400EBE7FF
:100860000220EAE7A16A40F60162914341F48071F7
:10087000A1622168B94218D1326812F4702F14D0E5
:10088000A16A41F48011A1623168490505D5A16AC8
:1008900021F4005141F48051A162A16AC9040AD532
:1008A000E16A21F00601E16206E0A26A22F4801208
:1008B000A2624968E9E7E06284F82400216A1548E9
:1008C0008862216A1448C862216A14480863216852
:1008D0006FF0020008602068816841F480718160D7
:1008E000216843464A464C31206A00F061F920688D
:1008F0008168C1F342410729816803D041F4801126
:10090000816099E741F4A001FAE70000002401406A
:1009100000280140030400086B040008510400088B
:1009200010B590F821100022022905D0042181631E
:1009300080F82020012010BD01680B6823F00E0311
:100940000B6001680B6823F001030B6090F84030E6
:10095000C46B012101FA03F3636080F8211080F871
:100960002020104610BD000010B590F82110002482
:10097000022903D00421816301243DE001680A6853
:1009800022F00E020A6001680A6822F001020A6081
:100990001A4A0168914201D1012121E0174A14321B
:1009A000914201D110211BE0144A2832914201D119
:1009B000891515E0114A3C32914201D189140FE0AA
:1009C0000E4A5032914202D14FF4803108E00B4A76
:1009D0006432914202D14FF4801101E04FF08071F6
:1009E000064A083A5160012180F82110002180F860
:1009F0002010416B01B18847204610BD080002401D
:100A00002DE9F05FC16B0C6801680B68D0F840C03D
:100A1000042202FA0CF2494DDFF824A1494E4A4F54
:100A2000DFF828B1DFF828E122422CD05A072AD576
:100A30000A68920603D40A6822F004020A60016878
:100A4000A94201D1042219E0514501D1402215E00B
:100A5000B14202D14FF4806210E0B94202D14FF4AA
:100A600080420BE0594502D14FF4802206E07145E7
:100A700002D14FF4800201E04FF080622F49083923
:100A80004A60C16A3BE04FF0020808FA0CF818EA25
:100A9000040F4FF000094FF0010235D05FEA837870
:100AA00032D50B689B0605D40B6823F00A030B6054
:100AB00080F821200168A94201D1022219E05145A4
:100AC00001D1202215E0B14202D14FF4007210E0B2
:100AD000B94202D14FF400520BE0594502D14FF414
:100AE000003206E0714502D14FF4001201E04FF0F0
:100AF0000072124908394A6080F82090816A002902
:100B00001AD0BDE8F05F0847082505FA0CF5254224
:100B100012D01B0710D50B6823F00E030B6090F862
:100B20004010C36B02FA01F15960826380F8212002
:100B300080F82090016BE2E7BDE8F09F08000240DA
:100B40001C000240300002404400024058000240B5
:100B50006C00024030B528B308C813491422194468
:100B6000B1FBF2F18900C163104981630221417731
:100B70001A6843F6F0718A43D0E900142143D0E9A2
:100B800002452C432143046921434469214384697C
:100B9000214311431960002141630122427701770B
:100BA000084630BD012030BDF8FFFDBF0000024007
:100BB00070B5044690F82000002501280CD00120D3
:100BC00084F8200094F821600020012E06D084F8DB
:100BD00020000225284670BD022070BD022684F840
:100BE0002160A0632068066826F0010606602046A2
:100BF000FFF792FCE06A00282068016802D041F00B
:100C00000E0106E021F0040101602068016841F056
:100C10000A0101602068016841F001010160D9E723
:100C200070B5044600F030F90546601C02D0044857
:100C30000078044400F028F9401BA042FAD370BDAC
:100C40003400002038B500210124084D0091B0F592
:100C5000807F03D0082800D16C7038BD04486946F5
:100C6000006803F07DFF2C7038BD000020000020DC
:100C700008000020044910B50A68024202D008604A
:100C8000FFF7E0FF10BD0000140401402DE9F84F0C
:100C9000DFF8B8910024A9F1040B23460F2709F1CE
:100CA000040AABF1040EC9E00125A5402A40AA427E
:100CB0007DD1674ED1F804C0ACEB0608B44532D004
:100CC00014DCBCF1030F3AD009DCBCF1000F2AD0D0
:100CD000BCF1010F1CD0BCF1020F31D11DE0BCF101
:100CE000110F17D0BCF1120F2AD119E0B8F5881FE7
:100CF00019D006DCB8F5803F15D0B8F5801F1FD19C
:100D000011E0B8F5001F0ED0B8F5041F18D10AE0A5
:100D1000CB6815E0CB681B1D12E0CB6808330FE0F1
:100D2000CB680C330CE08B682BB1012B4FF0080320
:100D300003D0456104E0042302E0056100E00023E4
:100D4000FF2A01D8064601E000F104064FEA8405B7
:100D500001D9A5F12005D6F8008007FA05FC28EA9C
:100D60000C0803FA05F548EA0508C6F800804D6846
:100D7000ED0062D5374DAE6946F00106AE61AD6952
:100D800024F0030605F001050095334D06EB050C34
:100D9000DCF80850A607360F07FA06F825EA08051A
:100DA000DFF8B880404503D14FF0000817E044E079
:100DB000DFF8AC80404502D14FF001080FE0DFF8CA
:100DC000A480404502D14FF0020808E0DFF8988087
:100DD000404502D14FF0030801E04FF0040808FA43
:100DE00006F848EA0508CCF808804D68D9F8006094
:100DF000ED024D4601D5164300E096432E604D6846
:100E0000DAF80060AD02554601D5164300E096437E
:100E10002E604D68DBF80060AD035D4601D51643DA
:100E200000E096432E604D68DEF80060ED037546E5
:100E300001D5164300E096432E60641C0D682A46D7
:100E4000E5407FF431AFBDE8F88F000008040140B1
:100E50000000111000100240000001400008014095
:100E6000000C01400010014000140140C26821EA5A
:100E700002030A4043EA0241016170470AB101617D
:100E800070470904FBE700000148806870470000D4
:100E90003400002070B5040025D094F83D000025F2
:100EA00020B984F83C50204600F0B8F8242084F89B
:100EB0003D002068016821F001010160206801689F
:100EC00041F4004101602068016821F400410160A3
:100ED00000F020FB4D4A6168914201D84C4900E086
:100EE0004C49884201D2012070BD4B492368B0FBB8
:100EF000F1F15E6826F03F060E435E606368934240
:100F000006D94FF4967359434FF47A73B1FBF3F15A
:100F10002368491C1E6A26F03F0631431962616846
:100F2000914210D84900401EB0FBF1F2521CC2F3AE
:100F30000B02042A01D2042022E0B0FBF1F0401C95
:100F4000C0F30B001CE0A268F2B301EBC10303EB9A
:100F50000116431EB3FBF6F35B1C43F480431B05F1
:100F600049D092B301EBC10202EB0111401EB0FB6C
:100F7000F1F0401CC0F30B0040F4804040F400400E
:100F80002168CA694CF6FF739A431043C861D4E9DB
:100F9000071001432068026822F0C002114301607B
:100FA000D4E9030101432068826848F2FF339A4381
:100FB00011438160D4E9050108432168CA6822F021
:100FC000FF021043C86001E00EE016E020680168EF
:100FD00041F0010101602564202084F83D00256373
:100FE00084F83E50002070BD01EB4106431EB3FB68
:100FF000F6F35B1CB3E70120C2E701EB4101401EA1
:10100000B0FBF1F0401CC0F30B00B7E7A086010075
:1010100080841E0000093D0040420F0010B586B0DC
:101020000021009101910291039100680F498842CB
:101030001AD10F4CA06940F00800A061A069694670
:1010400000F008000490C0200090122001900320BE
:1010500003900848FFF71AFEE06940F40010E061D1
:10106000E06900F40010049006B010BD0054004088
:1010700000100240000C01400248816802781144CF
:101080008160704734000020074810B5016841F0C6
:1010900010010160032000F0A7F80F2000F006F80F
:1010A00000F050F8002010BD0020024030B5054689
:1010B000204887B0C16941F00101C161C06906A93A
:1010C00000F00100009001A800F004FA0498B8B103
:1010D00000F020FA400018494FF08042B0FBF1F1D7
:1010E0001648491E0260416040F2E7320021C0E923
:1010F00003218160816101F0D1F8040003D015E083
:1011000000F008FAE7E70D4801F014F904000DD1EA
:101110001C2000F03BF8102D07D2002229461C208D
:1011200000F042F80648056000E0012407B02046C0
:1011300030BD00000010024040420F00F0050020CA
:10114000380000200F4808B5816941F00101816134
:10115000816901F001010091C16941F08051C161D3
:10116000C069002200F0805000900F21901E00F016
:101170001BF80548416821F0E06141F000714160D1
:1011800008BD00000010024000000140002809DBFB
:1011900000F01F02012191404009800000F1E02091
:1011A000C0F8001170470000F0B40E4B1B680C46ED
:1011B000C3F30223C3F10705042D00D90425191D2B
:1011C000072901D2002300E0DB1E012606FA05F103
:1011D000491E214099409E40761E16403143F0BC86
:1011E00002F0CBBC0CED00E0064900F007020868F5
:1011F0004FF6FF03184040EA0220034A10430860FC
:10120000704700000CED00E00000FA0501490120E4
:101210000862704700000E4210B501460020234CC2
:10122000012922D0022939D010291DD161682268F4
:10123000D20119D51E48C1F38342C903805C0AD587
:1012400061681B4AC1F34041921E515C194AB2FBCE
:10125000F1F1484301E0184948436168490203D469
:1012600040000321B0FBF1F010BD226AC2F301215E
:10127000012903D1920701D5C80310BD022905D168
:10128000626A920702D549F6404010BD0329FCD19D
:1012900021688903F9D54FF2244010BD00F04AF9C6
:1012A0006168C1F38131491C4900DBE7001002404D
:1012B0009C59000800127A0000093D002DE9F8430E
:1012C00005460078354CC00754D0E0690026C000C0
:1012D00008D4E06940F08050E061E069012600F048
:1012E000805000902E480168C90512D401688046DC
:1012F00041F480710160FFF7C7FD074605E000BFBC
:10130000FFF7C2FDC01B642823D8D8F80000C00531
:10131000F6D5206A10F4407021D0A98801F44071FC
:1013200081421CD0206A1F49012220F440700A60CB
:1013300000220A602062C00711D0FFF7A5FD074612
:1013400041F2883808E000BFFFF79EFDC11B414510
:1013500002D90320BDE8F883206A8007F4D5206A0B
:10136000696820F44070084320621EB1E06920F0F3
:101370008050E0612878800705D56068A96820F46E
:101380004040084360602878C00605D56068E96879
:1013900020F48000084360600020DBE7001002407A
:1013A00000700040400442422DE9F0470F4605001E
:1013B00061D0434E306800F00700B84209D230686F
:1013C00020F0070038433060306800F00700B84272
:1013D00051D128683B4C810712D5400703D560687E
:1013E00040F4E06060602878000703D5606840F44E
:1013F000605060606068A96820F0F0000843606099
:101400002878C00728D06868012810D021680228F1
:1014100010D0890700292EDA616821F00301014309
:101420006160FFF731FD804641F288390DE02168A7
:101430008903EFE78901EDE7FFF726FDA0EB08013F
:10144000494502D90320BDE8F0876068696800F06B
:101450000C00B0EB810FEFD1306800F00700B8420C
:101460000BD9306820F0070038433060306800F056
:101470000700B84201D00120E5E72878400705D5EC
:101480006068E96820F4E06008436060287800073D
:1014900006D56068296920F4605040EAC1006060A8
:1014A00000F058F86168084AC1F30311515CC84064
:1014B0000649086006480068FFF7F8FD0020C2E70B
:1014C0000020024000100240AC59000840000020FB
:1014D000380000200F2202600C4A536803F0030317
:1014E0004360536803F0F0038360536803F4E063E0
:1014F000C36052684FF4E06303EAD2020261044819
:10150000006800F00700086070470000001002400B
:10151000002002400448054900684968044AC1F3B4
:101520000221515CC840704740000020001002407A
:10153000BC5900080448054900684968044AC1F3D9
:10154000C221515CC840704740000020001002409A
:10155000BC5900080E4A51680E4801F00C03042BD8
:1015600011D0082B0FD10C48C1F38343C903C05CD1
:101570000AD55168084AC1F34041921E515C054AA0
:101580005043B0FBF1F070470449484370470000F6
:101590000010024000127A008A59000800093D003C
:1015A0002DE9F84F040070D02078C04DC00749D015
:1015B0006868C0F38100012807D06868C0F3810023
:1015C000022809D16868C00306D52868800339D588
:1015D00060680028E7D035E06068B0F5803F0BD048
:1015E00010B1B0F5A02F11D0286820F48030286009
:1015F000286820F4802002E0286840F480302860C9
:10160000606890B1FFF740FC06460AE0286840F4A5
:1016100080202860F0E700BFFFF736FC801B6428BD
:1016200073D828688003F7D50CE0FFF72DFC064639
:1016300005E000BFFFF728FC801B6428F0D828686D
:101640008003F7D420789A4E80074FF001094FF0BD
:10165000000839D5686810F00C0F07D06868C0F32F
:101660008100022809D16868C00306D42868800771
:1016700014D52069012808D110E02069B0B1C6F85E
:101680000090FFF701FC074605E00AE1FFF7FCFBCD
:10169000C01B0228C4D828688007F7D5286861696C
:1016A00020F0F80040EAC10028600DE0C6F8008094
:1016B000FFF7EAFB074604E0FFF7E6FBC01B022842
:1016C00023D828688007F7D4207800072CD57948DC
:1016D000A169D9B1C0F80090FFF7D6FB074604E036
:1016E000FFF7D2FBC01B02280FD8686A8007F7D526
:1016F00071484FF4FA510068B0FBF1F0009000BF60
:101700000098411E0091FAD20EE080E0C0F80080FF
:10171000FFF7BAFB074604E0FFF7B6FBC01B022841
:1017200075D8686A8007F7D42078400760D5E869E3
:101730000027C00008D4E86940F08050E861E869FB
:10174000012700F0805000905C480168C90513D45F
:101750000168834641F480710160FFF795FB824682
:1017600006E000BFFFF790FBA0EB0A0064284ED80C
:10177000DBF80000C005F5D5E06801280AD008B103
:10178000052813D0286A20F001002862286A20F07A
:10179000040002E0286A40F001002862E06841F29B
:1017A000883B98B1FFF770FB82460BE0286A40F057
:1017B00004002862EEE700BFFFF766FBA0EB0A011A
:1017C00059455AD8286A8007F6D50CE0FFF75CFB2C
:1017D000824605E0FFF758FBA0EB0A0159454CD8BB
:1017E000286A8007F6D41FB1E86920F08050E861CC
:1017F000E06988B36968C1F38101022944D00228F5
:10180000C6F8608004D0FFF73FFB044638E034E0C0
:10181000FFF73AFB074604E0FFF736FBC01B022840
:101820002BD828688001F7D4206AB0F5803F05D115
:101830006868A16820F4003008436860D4E90801B2
:101840000843696821F4741108436860C6F8609021
:10185000FFF71AFB044606E025E000BFFFF714FB84
:10186000001B022809D828688001F7D51BE000BFBB
:10187000FFF70AFB001B022802D90320BDE8F88FFE
:1018800028688001F4D40EE00128F7D06868226A45
:1018900000F48031914204D1616A00F470108842F2
:1018A00001D00120EAE70020E8E700000010024034
:1018B000000042428004424240000020007000408C
:1018C000F8B505004FF0000016460C46009006D013
:1018D0002CB100226946284600F019F808B1012011
:1018E000F8BD287B2070E87BE070697B6170A97B84
:1018F000A17056B101F067FCE070607801F063FC04
:101900006070A07801F05FFCA0700020F8BD2DE9A8
:10191000F04791460C465FEA00084AD084B3D8F8F5
:1019200000004068400744D4404601F0EBFC4FF40F
:1019300061620546B0FBF2F1B0FBF2F302FB13501B
:101940003C23B0FBF3F0B5FBF2F6607002FB1650DF
:10195000B0FBF3F203FB1200A070182931D318205A
:10196000B1FBF0F7B1FBF0F200FB12102070404623
:1019700001F0C1FC411C04D0A84202D9461B02E080
:1019800017E04FF0FF36A7EB071000EB4000C0EB6D
:10199000001005EBC0152946404601F002FD40B994
:1019A000701C01D0711900E03146404601F0E5FCA1
:1019B00010B10120BDE8F0873946404601F00EFC29
:1019C00000E02170B9F1000F0BD0207801F0FBFB93
:1019D0002070607801F0F7FB6070A07801F0F3FBF5
:1019E000A0700020E6E7000070B5040003D0607C22
:1019F000002610B105E0012070BD2674204600F0DD
:101A00003DF802206074204600F00AF9042550BB1E
:101A1000204601F03AFC30BB2068416821F0070104
:101A20004160A06820B11448016821F00101016003
:101A30001148001F0168A26821F460711143016020
:101A40006068411C04D10120FFF7E6FB58B1401E3D
:101A50002268C0F303419160216880B2C8602046CB
:101A600001F02EFC08B16574C5E7E67301206073D0
:101A7000A0736074002070BD306C004008B5006831
:101A8000084988420DD1FFF7C1FB0748C16941F001
:101A90000061C161C069054900F00060009001204B
:101AA000086008BD00280040001002403C0442428B
:101AB0002DE9F0410D4604003BD0C5B3207C012840
:101AC0003AD04FF0010884F8108002206074E87862
:101AD00072B301F06FFBE073687801F06BFB607329
:101AE000A87801F067FBA073C2B2617BE07B01F0D4
:101AF00019FC20732870204601F004FC4FF461614A
:101B0000B0FBF1F1002518292DD91822B1FBF2F113
:101B1000A1EB011101EB4101C1EB011100EBC11679
:101B20003146204601F03DFC0427C8B90BE000E037
:101B300004E00120BDE8F0810220FBE7E073687853
:101B40006073A878CFE7204601F0D5FB411C0AD08E
:101B5000B04208D206490144204601F00EFC10B103
:101B600067742574E5E784F8118025740020E1E7A7
:101B7000805101002DE9F0410D46040024D01DB331
:101B8000207C012823D04FF0010884F81080022027
:101B900060742878EAB101F00DFB4FF4616100FB3D
:101BA00001F6687801F006FBC0EB001006EB80063A
:101BB000A87801F0FFFA35182946204601F0F1FB1C
:101BC0000026042710BB0FE00120BDE8F0810220B1
:101BD000FBE74FF4616148436978C1EB011100EB09
:101BE0008100A9784518E7E72068416821F00501E0
:101BF0004160204601F07FFB411C0AD0A84208D278
:101C000006490144204601F0B8FB10B16774267400
:101C1000DAE784F8118026740020D6E780510100AD
:101C200070B504000AD02068416821F008014160C5
:101C3000FFF72AF905464FF47A7608E0012070BDD7
:101C4000FFF722F9401BB04201D9032070BD206884
:101C500040680007F4D5002070BD90F8510070472F
:101C600070B5040009D0606A002540B12561656146
:101C7000A56294F8510040B10CE0012070BD60688D
:101C8000B0F5827FF4D0E561F2E784F85050204649
:101C900000F040F8022084F851002068016821F02B
:101CA00040010160A088218900F4827001F40441A0
:101CB0000843A18901F400610843217C01F002017D
:101CC0000843217D01F001010843218B01F40071DB
:101CD0000843217F01F03801084394F8201001F0F7
:101CE00080010843218D01F40051084321680860F8
:101CF000A069042101EA1040216848602068C16998
:101D000021F40061C1616565012084F85100002063
:101D100070BD000030B585B0002400940194029499
:101D2000039400681449884223D11448816941F41E
:101D300080518161816901F480510491816941F090
:101D40000401816180690E4D00F004000490A02020
:101D50000090022001900320039069462846FEF778
:101D600095FF4020CDE90004694628460294FEF71D
:101D70008DFF05B030BD0000003001400010024072
:101D8000000801402DE9F84F044690F851001D4627
:101D900016460F46012838D160684FF00408B0F5A8
:101DA000827F01D1A06830B3FFF76EF88246002F22
:101DB00075D0002E73D094F85000012825D04FF034
:101DC000010984F8509084F851804FF00008C4F85D
:101DD0005480A763A687E687C4F83080A4F83480CF
:101DE000A4F83680C4F84080C4F84480A068B0F5F8
:101DF000004F0CD015E084F85180009313460A463A
:101E0000204600F01CF9BDE8F88F0220FBE72068AF
:101E1000016821F0400101602068016821F48041DF
:101E2000016020680168490603D4016841F040015F
:101E30000160E068C0B134E020688168C90709D05A
:101E4000007BA16B0870A06B401CA063E08F401E5C
:101E5000E08709E0FFF718F8A0EB0A00A84202D3D8
:101E6000681C01D032E085B3E08F0028E4D11BE08C
:101E700020688168C90709D0C068A16B0880A06B81
:101E8000801CA063E08F401EE0870AE0FEF7FCFFA5
:101E9000A0EB0A00A84203D3681C02D016E012E0AF
:101EA0009DB1E08F0028E3D152462946204601F03B
:101EB0008CFA08B12020606584F8519084F8508035
:101EC000606D00289FD001209DE7FFE784F85190C6
:101ED00084F85080032096E72DE9F84F984616467F
:101EE0008A460446FEF7D0FF814694F85100012847
:101EF0001ED1BAF1000F73D0002E71D094F85000AB
:101F0000012815D0012784F85070032084F851006F
:101F100000256565C4F830A0A686E686A563A5877A
:101F2000E58765642564A068B0F5004F03D00CE038
:101F30000220BDE8F88F2068016821F040010160AF
:101F40002068016841F48041016020680168490609
:101F500003D4016841F040010160E068B0F5006F12
:101F6000606803D048B3012E27D047E008B1012EA6
:101F70001FD1206B21680088C86006E02068816856
:101F8000890709D5216B0988C160206B801C2063FB
:101F9000E08E401EE0860CE0FEF776FFA0EB090124
:101FA000414503D3B8F1FF3F03D035E0B8F1000F4E
:101FB00032D0E08E0028E1D123E0206B2168007848
:101FC000087306E02068816889070AD5216B0978C3
:101FD0000173206B401C2063E08E401EE0860DE004
:101FE0002BE0FEF751FFA0EB0901414503D3B8F107
:101FF000FF3F03D010E0B8F1000F0DD0E08E0028B5
:10200000E0D14A464146204601F00DFA08B12020B1
:102010006065A06830B109E084F8517084F85050D0
:10202000032086E72068C1688068009084F85170BA
:1020300004F8505F60680028F3D0012079E72DE9AB
:10204000FF4F81B01D46934604464FF001090E9E96
:10205000FEF71AFF074694F851006168012806D080
:10206000B1F5827F3CD1A168C9BB042838D1029860
:10207000002871D0BBF1000FFBD0002DF9D094F8EF
:10208000500001282CD04FF0010A84F850A094F899
:102090005100042802D0052084F851004FF00008B8
:1020A000C4F85480C4F838B0E587A5870299216345
:1020B000E586A586C4F84080C4F84480206801689D
:1020C000490603D4016841F040010160E068B0F5C1
:1020D000006F606808D0F0B3012D49D081E0FFE7C0
:1020E000022005B0BDE8F08F08B1012D39D1206B79
:1020F00021680088C860206B801C2063E08E401E31
:10210000E0862EE02068816889070FD5E18E69B1ED
:10211000B9F1010F0AD1216B0988C160206B801CC5
:102120002063E08E401EE0864FF000092068816841
:10213000C9070CD0E18F51B1C068A16B0880A06BBA
:10214000801CA063E08F401EE0874FF00109FEF77E
:102150009BFEC01B01E00BE067E0B04201D3701CA6
:1021600050D1E08E0028CDD1E08F0028CAD13EE0CA
:10217000206B216800780873206B401C2063E08E80
:10218000401EE0862DE02068816889070FD5E18E2A
:1021900069B1B9F1010F0AD1216B09780173206B84
:1021A000401C2063E08E401EE0864FF0000920684E
:1021B0008168C9070CD0E18F51B1C068A16B08706C
:1021C000A06B401CA063E08F401EE0874FF0010928
:1021D000FEF75AFEC01BB04202D3701C01D011E0C2
:1021E00086B1E08E0028CED1E08F0028CBD13A46D0
:1021F0003146204601F017F950B12020606584F87F
:10220000508012E084F851A084F85080032068E7E1
:10221000A06818B92068C1688068009084F851A04F
:1022200084F85080606D0028F1D0012059E7704794
:102230007047000070B590F83C20012A26D0012498
:1022400080F83C40022280F83D2003685A689D686F
:1022500022F070060A6832435A600D4B02689A42B7
:1022600008D0B2F1804F05D00A4B9A4202D00A4BF7
:102270009A4204D1496825F080031943916080F89F
:102280003D40002180F83C10084670BD022070BD22
:10229000002C0140000400400008004010B504007C
:1022A00003D094F83D0010B107E0012010BD0020DC
:1022B00084F83C00204600F01FF8022084F83D001E
:1022C000211D206801F090F9012084F8460084F86F
:1022D0003E0084F83F0084F8400084F8410084F810
:1022E000420084F8430084F8440084F8450084F8F0
:1022F0003D00002010BD000008B500680B49884271
:1023000012D10B48816941F400618161806900222A
:1023100000F40060009005211920FEF745FFBDE89C
:1023200008401920FEF732BF08BD0000002C014014
:102330000010024090F83D10012901D001207047A3
:10234000022180F83D100168CA6842F00102CA60AB
:1023500000680B49884208D0B0F1804F05D0094988
:10236000884202D00849884204D1816801F00701FF
:10237000062903D0016841F0010101600020704787
:10238000002C0140000400400008004070B50446E5
:1023900090F83C000025012817D0012684F83C6005
:1023A000022084F83D002068826822F0770222F43F
:1023B0007F4282600868502838D00DDC20284FD03A
:1023C00005DC90B3102811D14AE0022070BD3028FE
:1023D00046D040280AD13BE060282FD070280DD08D
:1023E000B0F5805F03D0B0F5005F12D0012584F80E
:1023F0003D60002084F83C00284670BDCB68D1E9E0
:102400000121206801F02CF92068816841F07701F2
:1024100009E0CB68D1E90121206801F021F92068A9
:10242000816841F480418160E1E719E0CA68496848
:10243000206801F027F95021206806E0CA68496841
:10244000206801F030F96021206801F013F9CEE72F
:10245000CA684968206801F015F940212068F4E74E
:10246000226801461046F0E770472DE9F041044626
:102470000068C66805694FF00007A90713D5B107C2
:1024800011D5F91E0161012020772068806980073D
:10249000204602D0FFF7E8FF04E000F07EF8204677
:1024A00000F07CF82777680716D5700714D52168E7
:1024B0006FF004000861022020772068806910F422
:1024C000407F204602D0FFF7CFFF04E000F065F820
:1024D000204600F063F82777280715D5300713D575
:1024E00021686FF008000861042020772068C06927
:1024F0008007204602D0FFF7B7FF04E000F04DF858
:10250000204600F04BF82777E80616D5F00614D5DC
:1025100021686FF010000861082020772068C069EA
:1025200010F4407F204602D0FFF79EFF04E000F049
:1025300034F8204600F032F82777E80708D0F00793
:1025400006D021686FF001000861204600F027F8EE
:10255000280608D5300606D521686FF0800008618E
:102560002046FFF764FE680608D5700606D5216888
:102570006FF040000861204600F018F8A8060AD560
:10258000B00608D521686FF0200008612046BDE83C
:10259000F041FFF74DBEBDE8F0817047704700681D
:1025A000B0F1804F01D1FEF767BD704770477047AB
:1025B00070470000F8B5016804460868CA684B69AE
:1025C00010F00F0F4FF0000559D003F0010602F490
:1025D0009077374365D0C10705D0D10503D5616C2D
:1025E00041F001016164410705D5D90703D0616C51
:1025F00041F002016164810705D5D90703D0616C00
:1026000041F004016164010707D502F02001314364
:1026100003D0616C41F008016164616C00293AD01B
:10262000800604D5900602D5204601F0DCF920682A
:102630004069616CC0F38010090700D460B3204684
:1026400001F0AAF920684069400621D520681430BD
:1026500050E8001F21F0400140E80012002AF5D1A7
:10266000E06BA8B16D494163E06BFEF77DF900288E
:1026700011D0E06B416B01B0BDE8F0400847830624
:102680000FD593060DD52046BDE8F84001F0ABB953
:102690002046FFF78DFFF8BD2046FFF789FF6564F0
:1026A000F8BD266B2023012E7CD1C6067AD5D6062E
:1026B00078D508684868009048694FF002064006DF
:1026C00040D5E16B086840680004000CE8D0A28D9A
:1026D0008242E5D9E085886920282DD020680C3019
:1026E00050E8001F21F4807140E80012002AF5D163
:1026F0002068143050E8001F21F0010140E800126A
:10270000002AF5D12068143050E8001F21F0400164
:1027100040E80012002AF5D184F842302563206891
:102720000C3050E8001F21F0100140E80012002A90
:10273000F5D1E06BFEF7F4F86663A08DE18D401AE9
:1027400081B22AE0A08DE18D401A81B2E08D00288F
:10275000A6D00029A4D022680C3252E8000F20F441
:10276000907042E80007002FF5D12068143050E83F
:10277000002F22F0010240E80027002FF5D184F855
:102780004230256320680C3050E8002F22F0100200
:1027900040E80023002BF5D166632046FFF707FFD2
:1027A000F8BDFFE705062BD5150629D594F841009D
:1027B0002128F5D1A068B0F5805F01D12069B0B1C2
:1027C000206A411C2162216800784860E08C401E2C
:1027D0000004000CE084E3D12068C16821F080018E
:1027E000C1602068C16841F04001C160D8E7206A3B
:1027F0000088C0F308004860206A801C2062E5E77A
:102800004006CDD55006CBD5CA68204622F04002FE
:10281000CA6084F8413000F0D8F8C1E7893900086F
:1028200070B5040004D094F84100002510B106E012
:10283000012070BD84F84050204600F023F8242089
:1028400084F841002068C16821F40051C16020462D
:1028500001F02AF92068016921F4904101612068A2
:10286000416921F02A0141612068C16841F40051A9
:10287000C1606564202084F8410084F842006563EB
:10288000002070BD2DE9F04385B000240094019430
:1028900002940394064603684448DFF80CC1022101
:1028A0000322051510274FF08008634539D183694D
:1028B00043F480438361836903F480430493836911
:1028C00043F0040383618069DFF8E49000F00400C2
:1028D00004900802CDE90001039269464846FEF7DC
:1028E000D5F9CDE90054694648460294FEF7CEF981
:1028F000314D30482860C5E90174C5E903846C6135
:10290000AC612846EC61FEF725F908B1FDF72AFE17
:10291000B5630022052125206E62FEF745FC2520C7
:102920003CE0DFF898C063453AD1C36943F48023A3
:10293000C361C36903F480230493836943F00803EC
:1029400083618069CDE9005100F00800CDE90320E2
:102950001B4D69462846FEF799F9E814CDE90004B5
:10296000694628460294FEF791F91248154D283819
:102970002860C5E90174C5E903846C61AC6128462F
:10298000EC61FEF7E7F808B1FDF7ECFDB563002256
:10299000052127206E62FEF707FC2720FEF7F6FBD5
:1029A00005B0BDE8F083000000380140001002408F
:1029B0000008014044000240140300200048004089
:1029C000000C014058030020704770470248002166
:1029D000017041708170704715000020FEE7F8B566
:1029E000044641F080008DF8000017461E46A1887D
:1029F00000222068FEF742FA4FF4FA652B460122C6
:102A00006946A069FFF768FAA069FFF726F901286F
:102A1000FAD12B4632463946A069FFF75DFAA06924
:102A2000FFF71BF90128FAD1A18801222068FEF7DF
:102A300025FAF8BD10B51A2100F0A7F8A43810BD8A
:102A400070B50C460546012100F09FF8024644B1DE
:102A5000012C0BD0032C0FD0052C13D0062C17D033
:102A60001BE0002002F0F802E86116E0012002F00D
:102A7000F802521CE86110E0032002F0F802D21CB8
:102A8000E8610AE0052002F0F802521DE86104E066
:102A9000062002F0F802921DE8612846BDE8704069
:102AA000012100F0E4B970B504460021FFF7C8FF2A
:102AB0000A2001F0C3FE0121204600F066F8054619
:102AC0000A20FEF7ADF845F080020121204600F013
:102AD000CEF9642001F0B2FE2046216A00F0F4F83D
:102AE00094F82A10204600F043F994F82B10204661
:102AF00000F01FF923220C21204600F0B8F92046EF
:102B000000F060F994F82410204600F03BF9FF2211
:102B10001F21204600F0ABF994F8250094F8261008
:102B2000000100EB4100C2B21D21204600F09FF9D8
:102B3000204600F0A3F8208D2021020A204600F054
:102B400096F994F828202121204600F090F94021A0
:102B5000204600F01AF840F03F024021204600F0E5
:102B600086F901212046FFF76BFF0120E0610A2072
:102B700001F064FE4221204600F007F8122802D03E
:102B80004FF4CA7070BDC82070BD0EB501F07F0152
:102B90008DF8081001210A46009101AB02A900F04E
:102BA00003F89DF804000EBD2DE9F0470E461546CA
:102BB000044681889846DDF8209000680022FEF7E0
:102BC0005DF94FF4FA673B462A463146A069FFF7A4
:102BD00083F9A069FFF741F80128FAD13B464A463C
:102BE0004146A069FFF7CEF8A069FFF736F8012843
:102BF000FAD1A1882068BDE8F0470122FEF73EB96E
:102C00002DE9F04100250E46074614462846294680
:102C100001E03154401CA042FBDB01213846FFF7A4
:102C20000FFF12213846FFF7B0FF40061FD5FF22E5
:102C30001221384600F01BF913213846FFF7A5FF93
:102C4000054610213846FFF7A0FF02460D21384601
:102C500000F00DF9AC4200D22546002405E0002129
:102C60003846FFF792FF3055641CAC42F7DB052174
:102C70003846FFF7E5FE2846BDE8F08110B594B070
:102C8000044650220F496846FDF7EAFA94F82410EA
:102C90000120884002F0E1FA94F825206B4603EB0E
:102CA000C203D3E9002302F051F902F0A7FA102879
:102CB00001DD012100E00021204600F025F814B0DC
:102CC00010BD0000C859000870B50546C80444117D
:102CD000C4F307420621284600F0C9F8052001F098
:102CE000ADFDC4F307220721284600F0C0F80520F7
:102CF00001F0A4FDE2B20821284600F0B8F8BDE8D2
:102D00007040052001F09ABD70B50C46054626219D
:102D1000FFF73BFF14B140F0080201E000F0F702BA
:102D20002621284600F0A3F8BDE870400A2001F0F3
:102D300085BD10B52D2901D22D2105E0F02901D93D
:102D4000F02106E0782904D805222D3991FBF2F113
:102D500003E00A221E31B1FBF2F1C9B22031CAB23E
:102D60000B2100F084F8BDE810400A2001F066BD98
:102D700010B50A46092100F07AF8BDE810400A2093
:102D800001F05CBD70B50C4606460C2901DD0C2433
:102D900002E0072C00DA07241E21FFF7F6FE0546A5
:102DA0000A2001F04BFD64F31F15EAB21E213046E4
:102DB00000F05DF80A2001F041FD3046BDE87040AA
:102DC000FFF75CBF10B504461E21FFF7DEFE40F0A2
:102DD00007021E21204600F04AF8BDE810400A20F4
:102DE00001F02CBD0521FFF72BBE2DE9F0410F4668
:102DF0001C46164680460121C569FFF721FE0E21BB
:102E00004046FFF7C2FE02460D21404600F02FF873
:102E100032462221404600F02AF833463A46002145
:102E20004046FFF7DCFD03214046FFF709FE122173
:102E30004046FFF7AAFE00070BD5FF2212214046AD
:102E400000F015F829464046FFF7FAFD0120BDE8DD
:102E5000F081641E2404240C03D0012001F0EEFC58
:102E6000E5E729464046FFF7EBFD0020EFE70EB50A
:102E700041F080018DF8081001218DF804200A46E8
:102E8000009101AB02A900F001F80EBD2DE9F04759
:102E90000E461546044681889846DDF82090006865
:102EA0000022FDF7EBFF4FF4FA673B462A46314616
:102EB000A069FFF711F8A069FEF7CFFE0128FAD14B
:102EC0003B464A464146A069FFF706F8A069FEF76F
:102ED000C4FE0128FAD1A1882068BDE8F04701228C
:102EE000FDF7CCBFFEB500241648009401941449A8
:102EF000029401608915816001250573047502261D
:102F000006614FF460214460C161FDF7AFFB08B179
:102F100072B6FEE706200094CDE9015069460948E3
:102F2000FDF722FB08B172B6FEE7CDE9005669460F
:102F30000448FDF719FB002801D072B6FEE7FEBD7C
:102F400000240140080100202DE9F04F85B0002445
:102F50004B480094019402940394816941F010015C
:102F60008161816901F010010491816941F02001C2
:102F70008161816901F020010491816941F00401BE
:102F80008161816901F004010491816941F00801C6
:102F900081618069DFF8ECA000F008004FF4005573
:102FA0000490002229465046FDF768FF4FF4E047A1
:102FB000002239463448FDF761FFDFF8D0B04FF406
:102FC0000068012241465846FDF758FF4FF400794A
:102FD000012249462C48FDF751FF009502260125A4
:102FE0000396CDE9015469465046FDF74FFE032094
:102FF000CDE90240CDE9007569462348FDF746FE5C
:10300000280200902248CDE9010469465846FDF7A0
:103010003DFECDF800800396CDE90154694658463F
:10302000FDF734FE382000901A48CDE901056946C5
:103030001548FDF72BFECDF800900396CDE901541D
:1030400069461148FDF722FE002211460920FEF7CD
:10305000ABF80920FEF79AF8002211460A20FEF785
:10306000A3F80A20FEF792F8002205211720FEF7A8
:103070009BF81720FEF78AF805B0BDE8F08F000036
:103080000010024000100140000C01400008014007
:1030900000001110000021101CB5002417480194F5
:1030A000154900940160611EC0E90114FEF79CFC03
:1030B00008B172B6FEE78DF804408DF805408DF832
:1030C0000640012201A90D48FEF754FD08B172B671
:1030D000FEE701208DF800008DF801008DF8020058
:1030E00002468DF8034069460448FEF7E1FC0028DB
:1030F00001D072B6FEE71CBD002800408C01002004
:103100000F4810B50D4901604FF4827141600021F4
:103110008160C1604FF400720161C0E905121022A4
:10312000C0E90721416281620A21C162FEF798FD70
:10313000002801D072B6FEE710BD0000003001404B
:10314000A001002010B586B0002418480094019416
:1031500002940394049414490594016041F61F41BC
:10316000C0E9011440F2E731C0E903148021C0E94D
:103170000541FFF793F808B172B6FEE74FF48050AF
:10318000009069460948FFF701F908B172B6FEE7F9
:10319000049404A905480594FFF74CF8002801D0D1
:1031A00072B6FEE706B010BD002C0140F801002009
:1031B000FEE7FEE7010901EB810100F00F0000EBE3
:1031C0004100C0B27047002102E00A38C0B2491C79
:1031D0000A28FAD2090740EA116070472DE9F04148
:1031E00004460025C07B627BA37B42E0012A16D007
:1031F000032A14D0052A12D0072A10D0082A0ED08C
:103200000A2A0CD00C2A0AD0042A10D0062A0ED082
:10321000092A0CD00B2A0AD0022A0DD028E01F2B35
:103220000CD30C2A05D101221346401C20E01E2B92
:1032300004D30123521C1BE01C2B02D203F1010317
:1032400016E011D183B29E0710D16426B3FBF6F7C6
:1032500006FB173636B94FF4C876B3FBF6F706FB14
:1032600017331BB91D2303E01D2B01D103220123BA
:103270006D1C8D42BAD3D1B2E0736173DAB2A2731E
:1032800000F050F82073BDE8F08170B50446FDF7FA
:10329000FBFD05464FF47A7606E0FDF7F5FD401B91
:1032A000B04201D9032070BD206840688006F4D583
:1032B0002068416841F010014160002070BD0000AD
:1032C00070B504460068416821F010014160FDF7C7
:1032D000DBFD05464FF47A7607E000BFFDF7D4FD2D
:1032E000401BB04201D9032070BD206840688006B1
:1032F000F4D5002070BD0168086A496A89B241EAC4
:1033000000407047006881698AB2C1698BB28169E7
:1033100089B28A4203D0C06961F31F40704743EA13
:1033200002407047F0B56424C1EBC1030927A50032
:10333000072603EB01130329B3FBF7F100F5FA604D
:10334000114401440AD2401EB0FBF4F201EB90019B
:10335000B0FBF5F0891A0844001D08E0B0FBF4F258
:1033600001EB9001B0FBF5F0891A0844801CB0FB1A
:10337000F6F106FB1100C0B2F0BD70B50D46064671
:103380000024FFF782FF48B93168280C08623168D1
:10339000A8B248623046FFF793FF00B101242046EF
:1033A00070BD70B50D4606460024FFF76EFF48B9A4
:1033B0003168280C88613168A8B2C8613046FFF7CF
:1033C0007FFF00B10124204670BDF8B50446406877
:1033D0004FF48273984217D1A0684FF48065B0F51E
:1033E000004F01D0A8420FD12068066826F04006A1
:1033F00006606068984207D1A068A84204D1009294
:103400000B460022012103E000920B46002280219E
:10341000204600F023F8002804D0606D40F0200022
:1034200060650320F8BDF8B515460E460B460092C0
:1034300004460122022100F011F840B9334600226F
:1034400080212046009500F009F8002804D0606D26
:1034500040F0200060650320F8BD00002DE9F8432E
:103460001E46914688460446089DFDF70DFD401B0B
:10347000351AFDF709FD074625480068C0F3CB3033
:10348000684338E0701C37D0FDF7FEFCC01BA84233
:1034900003D215B1009860B32CE02068416821F098
:1034A000E00141606068B0F5827F0BD1A068B0F5A3
:1034B000004F02D0B0F5806F04D12068016821F080
:1034C00040010160A06AB0F5005F09D12068016881
:1034D00021F4005101602068016841F4005101604D
:1034E000012084F85100002084F850000320BDE83A
:1034F000F8830025401E00902068816838EA0100AA
:1035000004D000214945BDD10020F0E70121F9E7B1
:1035100040000020012000F039FEFBE710B55020EC
:1035200080F31188BFF34F8FBFF36F8F01F0C4FB9F
:1035300018B104494FF080500860002080F31188D2
:1035400010BD000004ED00E030B593B028216846BE
:10355000FCF7B8FE14210AA8FCF7B4FE00240F946F
:103560000920012110940090119412944FF480309E
:1035700004910691CDE901040225CDE907504FF4ED
:10358000E01009906846FEF70BF808B172B6FEE746
:103590000F20CDE90A054FF48060CDE90C400221EF
:1035A0000AA80E94FDF700FF08B172B6FEE70320EB
:1035B0000F904FF400701090800111900FA8FDF74C
:1035C0007DFE002801D072B6FEE713B030BD704713
:1035D0000148FEF74ABF0000F80100200148FEF74D
:1035E00044BF0000F0050020F0B50268194B1A4CEA
:1035F0001A4D4FF08047984205D0B84203D0A04200
:1036000001D0A84203D122F070064A6832439842A2
:1036100005D0B84203D0A04201D0A84203D122F481
:103620004074CA6822434C6922F08002224302603F
:103630008A68C2620A688262984201D1096901639C
:10364000012141610169C90703D0016921F001012C
:103650000161F0BD002C0140000400400008004062
:1036600010B5846842EA032224F47F440A432243CB
:10367000826010BD826822F070020A4342F00701A6
:103680008160704710B5036A046A24F00104046283
:10369000846924F0F00444EA021423F00A020A4385
:1036A0008461026210BD10B5036A046A24F010043C
:1036B0000462846923F0A00324F4704444EA0232D3
:1036C00043EA01118261016210BD0000194E1A4CDB
:1036D00006F1100706F1200520782988002226F837
:1036E0001010698827F810101146104636F810306F
:1036F0001A4437F81030401CC0B219440828F5D3DA
:10370000C2F3CF00A880C908E98000F053FAA8608E
:10371000E88800F04FFAE8602078401CC0B22070C2
:10372000082801D3002020704FF4FA7001F086F8C9
:10373000D2E70000D80000201400002000240D4E25
:103740000D4D4FF49677A046307878B101F0AEFA7F
:10375000011BB9420AD386F80080A9784246491C69
:10376000C9B2A970012900D9AA7004460A2001F043
:1037700065F8E9E7210000201500002008B5FFF7F3
:1037800025F901F093FA0D4C0090E51CA07810B1DA
:10379000012805D102E000F061FA01E000F094FA9E
:1037A0002078295C01F0B0FB20780521401C00F056
:1037B00007002070684601F067F8E7E71500002071
:1037C0000A4D01264FF4FA780024687806FA04F7C7
:1037D00038436870404601F031F86878641CB8439B
:1037E000E4B26870082CF0D3EEE70000150000206A
:1037F000A8B000F077FB0125202243491CA8FCF764
:103800002FFD4FF055084148FFF7ECFA404E414C70
:10381000E9463078002872D000203070202210A9AC
:103820003A48FFF7EDF907463848FFF703F96060BB
:10383000042F64D39DF84000AA2860D19DF8410070
:10384000A8425CD19DF84200002858D19DF8430061
:10385000552854D14FF400512F48FDF707FB2F484E
:103860004F460DF1700C81681C91C0681D90AA2014
:103870008DF800008DF8015022208DF80200032001
:10388000002100BF3B185CF82120001D491C1A6074
:10389000C0B20829F6DB21783954491C401C21703C
:1038A000C0B2B94607F80080401CC7B2242109F114
:1038B000010000F0B5F9020A09F807207F1CF9B2EF
:1038C000552209F80100491CC8B2642309F80020F8
:1038D000401CC2B269460D48FFF787FA10A0322398
:1038E000006825908DF89550042225A90748FFF718
:1038F0007CFA0648FFF776FA052000F09FFF0A20C1
:1039000000F09CFF85E7000040590008AC00002053
:10391000200000200000002000100140F8000020DE
:10392000AA00A155144C0020144E154DE0714FF41F
:103930007A77002211491348FDF7E9FF0022104968
:103940001048FDF7BDFFB078207070786070307857
:10395000A070A87820712878E07068786071E878A5
:10396000A071E07928B10020E071384600F066FFD0
:10397000DFE70120F8E700000C0000202C00002009
:103980002F0000208C01002010B5406A0021C18565
:10399000C184FEF70DFE10BD01680C3151E8002F07
:1039A00022F4907241E80023002BF5D10168143114
:1039B00051E8002F22F0010241E80023002BF5D14D
:1039C000016B012909D101680C3151E8002F22F067
:1039D000100241E80023002BF5D1202180F842108D
:1039E00000210163704708B590F84210222901D0E8
:1039F000022008BD82684FF480539A4201D10169C8
:103A000021B1816A9A421BD04AB10AE00268816AF8
:103A10005268C2F308020A80816A891C08E00269C0
:103A200072B10268526802F07F020A70816A491C12
:103A30008162C18D491E0904090CC18503D01BE0B8
:103A400002685268F1E70168CA6822F02002CA6081
:103A50000168CA6822F48072CA6001684A6922F06B
:103A600001024A61202180F8421000214163026B6B
:103A7000012A03D0FEF7A8FF002008BD01630168FA
:103A80000C3151E8002F22F0100241E80023002BF6
:103A9000F5D101680A68D20602D50A684968009122
:103AA000818DFEF784FDE7E770B504460068016983
:103AB000E26821F44051114301612169A068084383
:103AC000616908432168CA6841F20C639A43024362
:103AD000CA6020684169A26921F4407111434161C3
:103AE0001E492068884202D1FDF724FD01E0FDF760
:103AF00011FD00EBC00101EB001260686421800041
:103B0000B2FBF0F3B3FBF1F36FF018067343B2FBB3
:103B1000F0F5B2FBF0F605EB8305322303EB051558
:103B2000B5FBF1F5B6FBF1F605F0F00505EB061572
:103B3000B2FBF0F6B2FBF0F0B0FBF1F06FF0180260
:103B4000504306EB800003EB0010B0FBF1F021685E
:103B500000F00F002844886070BD0000003801406C
:103B60000148FEF727BD0000400200200148FEF793
:103B700021BD000088020020FEE70907090E002889
:103B800004DB00F1E02080F80014704700F00F0023
:103B900000F1E02080F8141D704700214FF07E50A6
:103BA00001F02EBC012101F08CBE0021084601F07D
:103BB00027BC000070B501F0FDFC134901F020FCAA
:103BC000124D294601F00AFD04460146284601F03F
:103BD000D1FD0F4E05463146204601F0FFFC294637
:103BE00001F00EFC314601F00BFC00F0B3F809497E
:103BF00001F09EFB0146084801F002FCBDE8704060
:103C0000064901F0B7BD000000F07F453333534053
:103C100000401C464EF9534100E0764533938843FB
:103C2000F0B505464FF6FF742046002241F221060A
:103C300011E0AB5C80EA03200023070403D586EA89
:103C4000400080B201E004EA40005B1CDBB2082BBC
:103C5000F3D3521C92B28A42EBD3F0BD30B5174A6F
:103C60000A2017499478B4FBF0F3CD5C154B1D7016
:103C7000D579002DB4FBF0F500FB15440C5D01D1A6
:103C800004F07F045C705478B4FBF0F54D5D9D70DA
:103C9000B4FBF0F500FB15440C5DDC701278B2FB50
:103CA000F0F40C5D1C71B2FBF0F400FB1420085C16
:103CB0005871FF209871D87130BD00000C000020B1
:103CC0006059000818000020F0B51E480068002860
:103CD00000DA4042C3B21C48642504780A20B4FBD1
:103CE000F5F1B1FBF0F200FB1211184A565C1849CD
:103CF0000E70B4FBF0F6B6FBF0F700FB1766965DAE
:103D00004E70B4FBF0F600FB1644145D8C70FF247B
:103D1000CC70BF240C71B3FBF5F4B4FBF0F500FBE1
:103D20001544145D4C71B3FBF0F4B4FBF0F500FBEB
:103D30001544145D8C71B3FBF0F400FB1430105C7F
:103D4000C871F0BD04000020000000206059000888
:103D5000180000202DE9F0410026A0F50001B1F186
:103D6000FE4F7DD200F500226FF07E0101EBE251A3
:103D7000C2F3025477184FF07E52A0EBC15602EB0B
:103D8000045557EA040047D02946304601F0D0FADE
:103D900080462946304601F0EDFC414601F030FBFB
:103DA0000546014601F01AFC8046454901F016FC23
:103DB000444901F0BDFA06464146284601F00EFC92
:103DC000314601F00BFC0646384601F0DBFB0746A6
:103DD0003D4901F003FC3D49794451F8241001F0BC
:103DE000A7FA314601F0A4FA06460121284601F05F
:103DF00068FD314601F09CFA05463846344901F029
:103E0000EDFB3449794451F8241001F091FA294628
:103E1000BDE8F04101F08CBA4FF07E51304601F020
:103E2000A9FC05462C4901F0D9FB2C4901F080FA88
:103E3000294601F0D3FB2A4901F07AFA294601F01C
:103E4000CDFB6FF0824101F073FA04462946084623
:103E500001F0C4FB214601F0C1FB0146284600E009
:103E600003E0BDE8F04101F063BA4FF07F42B2EBEE
:103E7000400F03D2BDE8F041FFF794BEB0F1FF4F11
:103E800008BFBDE8F081B0F1004F06D90120FCF772
:103E900048FABDE8F041FFF788BE30F0004105D098
:103EA0006FF01606172101F00CFD5BE70220FCF70E
:103EB00038FAFFF772FE80F00040BDE8F0810000A4
:103EC00066F1CC3EAAAA2A3FF4FD05385C1C00002E
:103ED0000070313F101C000021ED423E0A1180BEEF
:103EE000C1ABAA3E00B58BB0684600F033F92C2276
:103EF00069461348FCF7B4F91148124902C0491544
:103F000020F8041B104902C0CA14028041608915C0
:103F100001810E49C16040F2B31141610721017670
:103F2000417601218176FF2181776421C1770821C3
:103F300081830BB002485DF804EBFEF7B4BD0000CE
:103F4000AC000020000C014000080140A00100204E
:103F50008AB003220021012000F09CFD5A4903226F
:103F600008600021012000F095FD584DA860FDF784
:103F70008BF8FFF7E9FAFEF7E7FF5548416941F092
:103F8000010141614069002200F00100009005211B
:103F90000B20FDF709F90B20FDF7F8F800220521A9
:103FA0000C20FDF701F90C20FDF7F0F800220521A7
:103FB0000E20FDF7F9F80E20FDF7E8F846484549D0
:103FC000002401604549C0E901144FF48041C0E973
:103FD000034144618461C4610462FCF75BFF08B182
:103FE00072B6FEE7FFF78CF83E483D490C260160AB
:103FF0004FF4E131C0E90114C460C0E904468461B2
:10400000C461FEF70DFC08B172B6FEE7FEF76AFF69
:10401000FFF742F8FFF796F832483349483001601D
:104020004FF41651C0E90114C460C0E9044684612C
:10403000C461FEF7F5FB08B172B6FEE7264802221E
:104040002A493038FCF7E6FB0126CDE9006400235D
:10405000720227A1294800F0D1FDCDE900640023B8
:10406000802227A1284800F0C9FDCDE90064002383
:10407000802226A1274800F0C1FDCDE9006400237D
:10408000802225A1274800F0B9FDCDE90064002376
:10409000802225A1264800F0B1FDCDE9006400236F
:1040A000802224A1264800F0A9FD00F033FC1C2248
:1040B000244902A8FCF7D4F8002102A800F072F805
:1040C000686000F06AF8FEE7080000202000002089
:1040D000001002400054004038010020A08601007A
:1040E000003801404002002000480040F800002055
:1040F0005461736B4E6F646500000000F137000877
:104100005461736B41646300CD3600085461736B76
:1041100052544300253900085461736B4869656E39
:10412000546869007D3700085461736B4C65640006
:10413000C13700085461736B427574746F6E000070
:104140003D3700086C59000801460020842900D042
:10415000C81C704700B58BB040F2B111089107211F
:104160008DF824108DF8251001218DF82610FF21DF
:104170008DF82A1064218DF82B100821ADF8281035
:104180002C226946FCF76CF80BB000BD10B500B9E5
:10419000012000F053FB002010BD10B500F0BAFB69
:1041A000002010BD7FB50D4604464169B0F90800F6
:1041B00081B1A16971B1FFF7C7FFD4E905128DE89C
:1041C0000700D4E900102B46226900F044FD03905B
:1041D00004B070BDFFF7B8FF03A9CDE90001208A44
:1041E0002B4682B2D4E9001000F008FD012801D06E
:1041F0000020EDE70398EBE72DE9F041184C0F465E
:104200000546E6682068001D00F026FA38B92068E7
:1042100090F82C1001208840216981432161681C9D
:1042200007D137B12168BDE8F0410E48091D00F003
:1042300057BA20683544B5424560216805D2A06B65
:10424000BDE8F041091D00F033BA606B091D00F0B4
:104250002FFAA06A854200D2A562BDE8F081000075
:1042600044000020140700202DE9F041054600F02D
:1042700043FA2E4CA068401CA06020682C4F10B15F
:10428000606940B32DE02560A068012829D100268F
:1042900006EB860007EB800000F0FCF9761C072E89
:1042A000F6D323488C3000F0F5F92148A03000F017
:1042B000F1F91F48B43000F0EDF91D48C83000F0A6
:1042C000E9F91B48DC3000F0E5F919488C306063EF
:1042D0001430A06305E02068E96AC06A884200D80B
:1042E0002560606A401C6062E96A0120226988409A
:1042F0001043206101EB810007EB8000291D00F0D5
:10430000EFF900F019FA606900280CD02068E96A1A
:10431000C06A884207D207494FF080500860BFF357
:104320004F8FBFF36F8FBDE8F08100004400002085
:104330003806002004ED00E010B5044690F8510066
:1043400058B101280CD002280FD0502080F31188DA
:10435000BFF34F8FBFF36F8FFEE7206B00F000FAC3
:104360002046BDE8104000F0FBB910BD0F4841F2F7
:10437000B871420705D0C01D0C4A20F00700821A10
:10438000891A0B4A00230144C2E900030839183A8C
:1043900021F0070111604B600B600B1AC0E900139C
:1043A00093604FF000405360506170472807002031
:1043B00098000020144E154CA6F1C8074FF0805805
:1043C000DFF84C9012E000BF00F096F9F068C56885
:1043D000281D00F041F9A068401EA0606068401EE2
:1043E000606000F0A9F92846FFF7A6FF6068002882
:1043F000EAD138680128F9D9C9F80080BFF34F8F96
:10440000BFF36F8FF2E70000000700204400002098
:1044100004ED00E00346009829B10260C0E90F31C5
:10442000012100F059BB0060F8E72DE9F0479A46FA
:10443000DDE9098481466FF00303206B03EB820200
:104440001044089E20F00707780707D0502080F31B
:104450001188BFF34F8FBFF36F8FFEE7002561B167
:10446000002023180A5C83F834200A5C12B1401C37
:104470001028F6D384F8435001E084F83450072E16
:1044800000D30626E662C4E91165201D00F00DF98F
:1044900004F1180000F009F92461C6F10700646214
:1044A000A061E56484F8505052464946384600F011
:1044B000C1F82060B8F1000F01D0C8F80040BDE895
:1044C000F087000030B5114900E011460A688242C9
:1044D000FBD34B685C18844203D1406818444860A1
:1044E000084643681C18944209D1084C183C2468BB
:1044F000A24209D052681A4442600A6812680260F7
:10450000814200D0086030BD0460F9E798000020C7
:104510000648416B096829B1416BC968C968496897
:10452000816270474FF0FF31FAE70000440000203D
:1045300008484068401C4FF0500080F3118804D0B8
:10454000BFF34F8FBFF36F8FFEE7BFF34F8FBFF304
:104550006F8FFEE7A00000202DE9F04105460027FF
:1045600000F00EFA324E306808B9FFF7FFFE7069AE
:1045700005424ED1C5B3083568070ED005F00700D7
:10458000C0F108000544680707D0502080F3118867
:10459000BFF34F8FBFF36F8FFEE72DB37068854277
:1045A00037D82348183001460C6801E020460C46F5
:1045B0006168A94202D221680029F7D131688C4292
:1045C00027D007682168016060680837411B1029FF
:1045D0000FD96019420708D0502080F31188BFF32B
:1045E0004F8FBFF36F8FFEE713E041606560FFF709
:1045F00069FF61687068401A7060B268904200D2CA
:10460000B060706901430020C4E90001F068401CFB
:10461000F06000F0F1FB780707D0502080F311889C
:10462000BFF34F8FBFF36F8FFEE73846BDE8F081D1
:104630008000002010B5031F4FF080741C601B1F0A
:1046400021F001011960191F024B0B601439403829
:104650000A6010BD31450008D0E9013201699A6055
:10466000D0E901235A604A68824201D182684A60D7
:10467000002202610868401E086008687047000058
:10468000034B036003F15400086080201060704702
:104690009C03002000F108014FF0FF32C0E9011235
:1046A000C160016100210160704700210161704714
:1046B00030B50B685A1C02D000F1080202E0026912
:1046C00004E02246546825689D42FAD953684B603D
:1046D00099608A60516008610168491C016030BDC1
:1046E00042684A6093688B60936859609160086182
:1046F0000168491C01607047502080F31188BFF3A6
:104700004F8FBFF36F8F0A494868401C48600128EB
:104710000CD10848006810F0FF0F07D0502080F33C
:104720001188BFF34F8FBFF36F8FFEE77047000014
:10473000A000002004ED00E00849486828B1401EB0
:10474000486001D180F311887047502080F31188B0
:10475000BFF34F8FBFF36F8FFEE70000A000002074
:1047600070B500282AD0164DA0F108046068696968
:10477000084207D1502080F31188BFF34F8FBFF359
:104780006F8FFEE722683AB1502080F31188BFF3A3
:104790004F8FBFF36F8FFEE78843606000F0F0F843
:1047A00060686968084468602046FFF78BFE2869E6
:1047B000401C2861BDE8704000F01EBB70BD0000C9
:1047C000800000204FF0E020002101618161054957
:1047D0004FF47A720968B1FBF2F1491E4161072179
:1047E000016170474000002010B5FBF715FD11492D
:1047F00010280ED300F1E02090F8F0030A789042E0
:1048000007D2502080F31188BFF34F8FBFF36F8F13
:10481000FEE709480068896800F4E060884207D92B
:10482000502080F31188BFF34F8FBFF36F8FFEE7E7
:1048300010BD0000A00000200CED00E010B502004B
:1048400014D00F48006B38B1502080F31188BFF3AB
:104850004F8FBFF36F8FFEE700F092F800211046F4
:10486000FFF7CAFC00F0C8FA002807D105494FF04D
:1048700080500860BFF34F8FBFF36F8F10BD0000F3
:104880004400002004ED00E070B50D4604000BD09C
:1048900095B11E4A106BB8B1502080F31188BFF358
:1048A0004F8FBFF36F8FFEE7502080F31188BFF367
:1048B0004F8FBFF36F8FFEE7502080F31188BFF357
:1048C0004F8FBFF36F8FFEE700F05AF8D26823686E
:1048D0005919934204D98B420AD9914202D807E070
:1048E0008B42FAD9881A21600021FFF785FC00E08D
:1048F000216000F081FA002807D105494FF080506F
:104900000860BFF34F8FBFF36F8F70BD440000206E
:1049100004ED00E010B586B00024039405AA04A9B4
:1049200003A80494FFF7ACFEDDE903010094CDE990
:10493000011000230EA11048059A00F08CF90F49D0
:104940000028C86211D0502080F31188BFF34F8F28
:10495000BFF36F8F4FF0FF30886201204861CC6059
:1049600006B0BDE8104000F041B806B010BD000030
:1049700049444C4500000000B543000844000020B5
:104980000248016B491C016370470000440000208D
:104990001448016B11B10121C16170470021C1614F
:1049A0000169B1FA81F1C1F11F0101EB81020E49E8
:1049B00051F822306BB101EB820101F108034A6822
:1049C00052684A609A4201D152684A60D1680160D7
:1049D0007047502080F31188BFF34F8FBFF36F8F64
:1049E000FEE7000044000020380600201CB52649E0
:1049F00008780190FF20087008788DF800009DF875
:104A000000009DF8002000F0F000904207D05020F8
:104A100080F31188BFF34F8FBFF36F8FFEE79DF8D0
:104A200000001A4C00F0500020700720A06005E044
:104A30009DF8002052008DF80020401E9DF80020B7
:104A40001206F5D4A060032807D0502080F3118807
:104A5000BFF34F8FBFF36F8FFEE74FF44070A0603E
:104A6000019808700A48016841F47001016001680A
:104A700041F070410160FFF7A5FE00206060FBF788
:104A800095FB00201CBD000000E400E0A000002019
:104A900020ED00E0F8B517460E46050013D005FBE3
:104AA00006F04830FFF758FD04000AD0002084F8D3
:104AB000460004F148023B46314628460094FFF781
:104AC000A9FC2046F8BD502080F31188BFF34F8F1A
:104AD000BFF36F8FFEE7000070B50D46040025D0D0
:104AE000FFF70AFED4E90F20216802FB0011A16044
:104AF0000021A163216861600A46D4E90F01401ECC
:104B000000FB0121E16021464FF0FF3001F8440F26
:104B1000487004F110008DB1FFF7BCFD04F12400D2
:104B2000FFF7B8FDFFF708FE012070BD502080F3AD
:104B30001188BFF34F8FBFF36F8FFEE72169002904
:104B4000F0D000F01FF90028ECD004494FF080505D
:104B50000860BFF34F8FBFF36F8FE3E704ED00E012
:104B600070B50E46040009D0206C78B1502080F357
:104B70001188BFF34F8FBFF36F8FFEE7502080F394
:104B80001188BFF34F8FBFF36F8FFEE7206848B9DE
:104B9000A06838B1502080F31188BFF34F8FBFF366
:104BA0006F8FFEE7FFF720FE5020EFF3118580F3B3
:104BB0001188BFF34F8FBFF36F8FA16BE06B8842FB
:104BC00018D994F94500491CA163411C04D0401C2C
:104BD00084F8450001200EE0606A0028FAD004F154
:104BE000240000F0CFF80028F4D0002EF2D00120ED
:104BF0003060EFE7002085F3118870BD2DE9FF5F7D
:104C00008346DDE90E87994616468A469000FFF7EF
:104C1000A3FC05001CD05420FFF79EFC040014D018
:104C20000020256384F85100CDE90240CDE90087DA
:104C30004B46324651465846FFF7F7FB2046FFF7F2
:104C400013FB012004B0BDE8F09F2846FFF788FD64
:104C50004FF0FF30F6E7F0B585B0DDE90B640A9D53
:104C6000A6B1DCB1542700972663022684F8516070
:104C7000002604AFCDE90246CDE90057FFF7D5FB8A
:104C80002046FFF7F1FA049805B0F0BD502080F3FC
:104C90001188BFF34F8FBFF36F8FFEE7502080F373
:104CA0001188BFF34F8FBFF36F8FFEE70148C068D5
:104CB00070470000440000202DE9F0412F4C0026F1
:104CC000206B28B1A069401CA0613046BDE8F0818E
:104CD000E5686D1CE56013D1606B006838B1502049
:104CE00080F31188BFF34F8FBFF36F8FFEE7606BC8
:104CF000A16B6163A063206A401C2062FFF708FC7F
:104D0000A06ADFF87C80854209D3606B0068A0B19F
:104D1000606BC068C7687868854211D2A06220685D
:104D2000C06A00EB800158F82100012800D9012653
:104D3000E0690028C9D00126C7E74FF0FF30EDE752
:104D4000381DFFF789FCB86A18B107F11800FFF7A2
:104D500083FCF96A0120226988401043206101EB3D
:104D6000810108EB8100391DFFF7BAFCF86A216860
:104D7000C96A8842C9D30126C7E700004400002061
:104D8000380600202DE9F041C068C468ACB104F1D8
:104D900018000746FFF760FC154D286B0126A0B1EF
:104DA00039461448FFF79CFCE06A2968C96A8842C2
:104DB0001CD90120EE61BDE8F081502080F31188FC
:104DC000BFF34F8FBFF36F8FFEE7201DFFF744FC4B
:104DD000E16A2A6906FA01F01043286101EB8100BB
:104DE0000449B43901EB8000211DDBE70020E2E734
:104DF00044000020EC0600202DE9F0472C4D002453
:104E00002746286B38B1FFF777FC286B401E2863D4
:104E1000286B40B146E0502080F31188BFF34F8FDC
:104E2000BFF36F8FFEE7A968224E0120D1B3A6F130
:104E3000B40980463068E8B1F068C46804F118002D
:104E4000FFF70AFC201DFFF707FCE06A2A6908FA51
:104E500000F11143296100EB800109EB8100211D64
:104E6000FFF73EFCE06A2968C96A8842E2D3C5F8C8
:104E70001C80DFE70CB1FFF74BFBAC6944B1464641
:104E8000FFF71AFF00B1EE61641EF9D10020A8619E
:104E9000E86938B10849012738070860BFF34F8F28
:104EA000BFF36F8FFFF748FC3846BDE8F08700007E
:104EB00044000020EC06002004ED00E02DE9F04164
:104EC000104F002405464FF480587E14280601D563
:104ED000012200E0002241463846FBF7CFFF0122C5
:104EE00031463846FBF7CAFF002231463846FBF709
:104EF000C5FF6806641C050EE4B2082CE6D3BDE8C5
:104F0000F0810000000C014070B504460D480D46CC
:104F10004078FFF7D3FF0120A040C043C0B2FFF7A5
:104F2000CDFF2846FFF7CAFF0122074D9403214613
:104F30002846FBF7A3FF21462846BDE87040002223
:104F4000FBF79CBF15000020000C01402DE9C0417B
:104F500030B4DFF8A0C23CEA111418BF3CEA1314C5
:104F600000F0EC8081EA03051CEA111444EAD574D0
:104F700018BF1CEA131500F0C780A4EB05044FF01E
:104F8000004545EAC12145EAC32341EA505143EABD
:104F9000525304F17F74994204F500344FEAC02063
:104FA0004FEAC22208BF904200F09C804FEA13658E
:104FB0000FF24016765D4FEA134506FB05F7C7F181
:104FC000807706FB07F74FEAD737A7FB03687642DF
:104FD000C8F58038A7FB06CE38BFA8F1010807FB4B
:104FE00008E64FF0000EA6FB028CE6FB03CEDCF1D8
:104FF000000CCEF1004E38BFAEF1010EA6FB0C58EE
:105000004FF000074FF00005E6FB0E87A1FB08C636
:10501000A0FB07CE16EB0E0645F10005E1FB076588
:1050200015F1E04E7EBFA4F580345FEA46066D417F
:1050300016F1800745F100054FEA17274FEA06668B
:1050400047EA0567A6F1DE46B6F1805F4FEA15250F
:105050001FD9384624F0010C05EBC471BCF1FE6F7A
:1050600001EB0C1102D8F0BCBDE8008124425CBF0A
:1050700001F5801E9EEAC47F02D4F0BCBDE8008129
:10508000244238D4F0BCA1F1C041BDE8004100F099
:1050900049B94FEAD22242EA43524FEAD323A7FB4F
:1050A00002864FEAD02040EA415007FB03661EEA21
:1050B0000E0F4FEAD12105FB026658BFA6EB005642
:1050C000B6EB00564FEA520E4EEAC37E18EB0E0EB8
:1050D00056EB530EBDD518EB02085E417F1C55F10F
:1050E0000005B6E74FF480154FF000074FF00006BB
:1050F0004FF00008ADE7F0BC4FF0000001F1C041F7
:1051000001F00041BDE8008111EA0C1F0CEA131503
:1051100000D00CE013EA0C1F00F025804FF00000D7
:10512000F0BC81EA030101F00041BDE80081F0BC60
:10513000BDE8004181EA030100F0F4B8F0BCBDE82D
:10514000004170B500F0A0F8097EFC3E00F007B801
:1051500081EA03014FF0000001F00041704781EA4D
:10516000030100F0DFB8F0BCBDE800414FF00000E3
:1051700021497047FFFDFBF9F7F5F4F2F0EEEDEB96
:10518000E9E8E6E4E3E1E0DEDDDBDAD8D7D5D4D345
:10519000D1D0CFCDCCCBCAC8C7C6C5C4C2C1C0BF91
:1051A000BEBDBCBBBAB9B8B7B6B5B4B3B2B1B0AF97
:1051B000AEADACABAAA9A8A8A7A6A5A4A3A3A2A17B
:1051C000A09F9F9E9D9C9C9B9A9999989797969536
:1051D00095949393929191908F8F8E8E8D8C8C8BD2
:1051E0008B8A89898888878786858584848383825A
:1051F000828181800000FF070000F87F4FEA4103B1
:105200004FEA5353A3F58063D3F11E03C8BFD3F114
:10521000210C0CDD4FF0004242EAC12242EA50521A
:1052200032FA03FC8CEAE17CACEBE1707047102BA6
:10523000C4BF0020704703F5787CBCF1FF3F04D069
:105240006FF0004282EA2100704770B500F01CF850
:105250004992248000207047F2E710F0004248BFD6
:105260004042B0FA80F310FA03F10AD0C3F11D03F3
:1052700003F580634FEA415002EB035202EBD12168
:1052800070474FF0000070470EF1020E2EF0030E33
:105290005EF8046B364205D4012A43EB030515F58D
:1052A000001F12D8012841EB010C1CF5001F0CD87F
:1052B0000ED14FEAD17C15F5001F0CEB4C0C0CF114
:1052C000020C08BF4CEBD37C04E04FF0080C01E06B
:1052D0004FEAD37C0CEB4C0526FA05F606F00706E0
:1052E000B6F1040C06D20EEB860CBDE870404CF013
:1052F000010C6047DFE80CF0090B02024FF000419F
:105300004FF00000A1F5002170BD1946104601289C
:1053100051EB010418BFD4F5001484BF002001F044
:10532000004170BD0808A0F500114FEA3101704737
:1053300090EA010F48BF81F0004100F12282421A39
:105340003CBF801A89184FEAD0524FF07F4C1CEABC
:10535000410FA2EBD15318BF9CEA026F00F03B80D3
:105360004FF0004C4CEA00204CEA012121FA03FCEA
:1053700010EB0C0C1ED202F1FF325FEA1C2040EB56
:10538000C25038BF70471CF07F0F4FEA400C18BF67
:10539000BCF17F4F38BF7047C3F12003994008BF6D
:1053A00020F00100BCF17F4F38BF7047A0F1C04032
:1053B00000F0DBB94FEA3C00000A40EBC25028BFC6
:1053C0001CF0FF0F4FEA400CE6D018BFBCF17F4F36
:1053D00038BF7047EAE79CEA026F05D010EA5C0F1D
:1053E00008BF00F00040704710B500F078F900BF2A
:1053F00064FBBE3E014800F032BA00BF0000C07F2F
:105400004FF47F0C1CEAD0121EBF1CEAD11392EAA3
:105410000C0F93EA0C0F00F0858090EA010F48BF53
:1054200042F4807240F4000C41F400002CF07F4103
:1054300020F07F4000B58142A2EB03020FF2081C6E
:10544000ACEB504EC0F100009EF800E04FEA4E0E6B
:1054500000FB0EFC38BF49004FEA2C1C02F5FA0293
:105460000CFB0EF34FEACE1E4FEA112C4FEAC1217E
:105470000EEB635E42EB22420EFB0CFC4FEA1C5328
:1054800000FB03114FEA112C4FEA01310EFB0CFC1B
:105490004FEADC4C00FB0C11C14228BF09184CEB51
:1054A00003335DF804EB10EB410143EBC250B2F55E
:1054B0007C0F38BF704729D512F0F00F1CBF00F1E8
:1054C000C04000F000407047008182838485868759
:1054D00088898B8C8D8E8F919293959697999A9CB3
:1054E0009D9FA0A2A3A5A7A8AAACAEB0B2B3B5B722
:1054F000B9BCBEC0C2C5C7C9CCCED1D4D7D9DCDFF8
:10550000E2E6E9ECF0F3F7FAFE0000004FEA400CA7
:105510000CF1807CBCF17E4F28BF7047B0F1C040D9
:1055200000F023B990EA010F0CEAD11348BF42F40E
:105530008072624538BF634507D213F47F0F16D0DF
:1055400080EA010000F00040704710B500F0C7F895
:10555000097EFC3E00F005B880EA010000F0004042
:10556000704780EA010000F0004000F0FEB812F43D
:105570007F0F04BF0248704780EA010000F0F5B8D1
:105580000000C07F10F0004148BF4042B0FA80F3F5
:1055900010FA03F2C3F19D030BD051EAC35101EBA2
:1055A0001220530638BF704700F1010008BF20F0F9
:1055B00001007047B0FA80F310FA03F2C3F19D03C3
:1055C0000AD0D90501EB1220530638BF704700F10D
:1055D000010008BF20F00100704700004FF47F0C6D
:1055E0001CEAD0121EBF1CEAD11392EA0C0F93EAF8
:1055F0000C0F00F0478090EA010F48BF42F4807220
:105600004FF0004C4CEA00204CEA012102EB03026F
:10561000A0FB0113A2F50002002918BF43F001030B
:105620005B0028BF4FEA330342EB22425FEA132CB0
:105630004CEBC2502EBFBCEB436FB2F57C0F7047F2
:105640004FEA036CBCF1004F08BF20F00100B2F537
:105650007C0F38BF70470BD582F0FF0212F5803FF8
:10566000C8BF704700F1C040D8BF00F0004070478D
:1056700000F5000C5FEA4C0C48BF7047B0F1C04029
:1056800000F073B890EA010F0CEAD11348BF42F45E
:105690008072624538BF634504D280EA010000F0A1
:1056A0000040704710B500F01AF800BF8900013EB5
:1056B00000F007B800F009B85FEA410C5FEA1C6C23
:1056C00008D080EA010000F050B85FEA400C5FEAC1
:1056D0001C6CF6D14FF00040A0F5800070470EF131
:1056E000020E2EF0030E5EF8044B244204D44FEA5F
:1056F0004102B2F17F4F11D84FEA4003B3F17F4F1F
:105700000CD80ED14FEAD07CB2F17F4F0CEB4C0C91
:105710000CF1020C08BF4CEBD17C04E04FF0080CFC
:1057200001E04FEAD17C0CEB4C0324FA03F404F0C3
:105730000704B4F1040C06D20EEB840CBDE8104053
:105740004CF0010C6047DFE80CF0070802024FF054
:105750000040A0F5800010BD0846420018BFD2F1FD
:10576000807288BF00F0004010BDFF2141EAD05098
:10577000C005704790EA010F48BF81F000413FF536
:10578000DEAD421A04D882F00042A0EB02001144C0
:105790004FEAD0524FF07F4C1CEA410FA2EBD1539D
:1057A00018BF9CEA026F4AD04FF0004C4CEA002030
:1057B0004CEA012121FA03FCB0EB0C0C0FD412F0DF
:1057C000FE0F36D05FEA4C001DD5001240EBC250F0
:1057D00038BF70471CF03F0F18BF70470BE0A2F1B5
:1057E00001025FEA1C2040EBC25038BF70471CF03A
:1057F0007F0F18BF7047C3F12003994014BF401EAC
:1058000020F00100704780084FEA122308BF70475C
:10581000B0FA80FCA2EB0C02CCF1280C60FA0CF080
:1058200093EA122F04BF00EBC25070474FEAC370D7
:105830007047130A5FEADC1008BF7047F6E79CEA7E
:10584000026F04D010EA5C0F08BF0020704710B54B
:10585000FFF745FF40DFF63E81F0004070470CF057
:105860000F03092B08BF082000F051800A2B0BD032
:10587000082B18BF704708BF1CF0400F0AD04FF02C
:1058800000004FF0000170471CF0400F18BF4FF0B0
:10589000004070471CF0100F08D020F0704300F05B
:1058A0007F4242EAD3014FEA4370704700F0604004
:1058B00021F07F4242EA000201F07F4040EA72702C
:1058C00070474FF0FF0212EAD0521CBF92F0FF0364
:1058D0008B42C2BFD14200EBC1507047002A0AD0B0
:1058E000002B0BD0002900F00040A4BF40F0FE4088
:1058F00040F40000704700F00040704743024FF052
:105900000B0C18BF4CF0806C7FF474AD70471CF426
:10591000801F11D01CF4E02F03D06FEACC31490076
:1059200070474FF04050EFF3008222F0704242EA9D
:10593000000282F3008870474FF0000070470000BB
:10594000A4704541B81E6342713DB442713D0A42A4
:10595000CDCC9D421F8533418FC20542D7A35E4205
:10596000C0F9A4B0999282F880900000585A0008BB
:105970001535000800000000000000008000000055
:1059800000000000000000000102020304050607F9
:1059900008090A0B0C0D0E0F10100102020304057A
:1059A000060708090A0B0C0D0E0F1010000000006E
:1059B00000000000010203040607080900000000BF
:1059C00001020304000000003333333333331F403C
:1059D000CDCCCCCCCCCC24403333333333332F40F9
:1059E000CDCCCCCCCCCC34400000000000403F40BB
:1059F0009A99999999D944400000000000404F407D
:105A00000000000000405F400000000000406F40C8
:105A10000000000000407F40000000000030F13D29
:105A20000070643E0000A33E0090CF3E0090F83E20
:105A300000400F3F00E0203F0000000015B7833713
:105A4000CDE37B380EE1C53860F69138AF5F0F3893
:105A5000E1BC3E3823F4473964656661756C745463
:105A600061736B00845A000800000020AC00000045
:105A700028010008305B0008AC00002094240000DE
:105A800044010008000000000000000000000000C9
:105A9000000000000000000000000000FFFFFFFF0A
:105AA000FFFFFFFF000000000000000000000000FA
:105AB00000000000000000000100000010000000D5
:105AC0000000000000127A0000000000000000004A
:105AD00000000000000000000000000000000000C6
